{"contracts/FateboundCore.sol":{"FateboundCore":{"abi":[{"inputs":[],"stateMutability":"nonpayable","type":"constructor"},{"anonymous":false,"inputs":[{"indexed":true,"internalType":"uint256","name":"gameId","type":"uint256"},{"indexed":true,"internalType":"address","name":"player","type":"address"},{"indexed":false,"internalType":"enum TurnVerifier.TurnResult","name":"result","type":"uint8"},{"indexed":false,"internalType":"uint8","name":"totalTurns","type":"uint8"},{"indexed":false,"internalType":"uint32","name":"score","type":"uint32"},{"indexed":false,"internalType":"bytes32","name":"replayHash","type":"bytes32"}],"name":"GameCompleted","type":"event"},{"anonymous":false,"inputs":[{"indexed":true,"internalType":"uint256","name":"gameId","type":"uint256"},{"indexed":true,"internalType":"address","name":"player","type":"address"},{"indexed":false,"internalType":"uint64","name":"sequenceNumber","type":"uint64"}],"name":"GameRequested","type":"event"},{"anonymous":false,"inputs":[{"indexed":true,"internalType":"uint256","name":"gameId","type":"uint256"},{"indexed":true,"internalType":"address","name":"player","type":"address"},{"indexed":false,"internalType":"bytes32","name":"seed","type":"bytes32"}],"name":"GameStarted","type":"event"},{"anonymous":false,"inputs":[{"indexed":true,"internalType":"uint256","name":"gameId","type":"uint256"},{"indexed":false,"internalType":"uint8","name":"turn","type":"uint8"},{"indexed":false,"internalType":"bytes32","name":"stateHash","type":"bytes32"},{"indexed":false,"internalType":"enum TurnVerifier.TurnResult","name":"result","type":"uint8"}],"name":"TurnSubmitted","type":"event"},{"inputs":[],"name":"ENTROPY","outputs":[{"internalType":"address","name":"","type":"address"}],"stateMutability":"view","type":"function"},{"inputs":[{"internalType":"uint64","name":"sequenceNumber","type":"uint64"},{"internalType":"address","name":"_provider","type":"address"},{"internalType":"bytes32","name":"randomNumber","type":"bytes32"}],"name":"_entropyCallback","outputs":[],"stateMutability":"nonpayable","type":"function"},{"inputs":[{"internalType":"address","name":"","type":"address"}],"name":"activeGameId","outputs":[{"internalType":"uint256","name":"","type":"uint256"}],"stateMutability":"view","type":"function"},{"inputs":[{"internalType":"uint256","name":"gameId","type":"uint256"},{"internalType":"uint32","name":"score","type":"uint32"},{"internalType":"bytes32","name":"replayHash","type":"bytes32"}],"name":"claimVictory","outputs":[],"stateMutability":"nonpayable","type":"function"},{"inputs":[{"internalType":"uint256","name":"gameId","type":"uint256"}],"name":"forfeitGame","outputs":[],"stateMutability":"nonpayable","type":"function"},{"inputs":[],"name":"gameCounter","outputs":[{"internalType":"uint256","name":"","type":"uint256"}],"stateMutability":"view","type":"function"},{"inputs":[{"internalType":"uint256","name":"","type":"uint256"}],"name":"games","outputs":[{"internalType":"address","name":"player","type":"address"},{"internalType":"bytes32","name":"seed","type":"bytes32"},{"internalType":"bytes32","name":"stateHash","type":"bytes32"},{"internalType":"uint8","name":"currentTurn","type":"uint8"},{"internalType":"uint32","name":"score","type":"uint32"},{"internalType":"enum FateboundCore.GameStatus","name":"status","type":"uint8"},{"internalType":"enum TurnVerifier.TurnResult","name":"result","type":"uint8"}],"stateMutability":"view","type":"function"},{"inputs":[{"internalType":"uint256","name":"gameId","type":"uint256"}],"name":"getGame","outputs":[{"internalType":"address","name":"player","type":"address"},{"internalType":"bytes32","name":"seed","type":"bytes32"},{"internalType":"bytes32","name":"stateHash","type":"bytes32"},{"internalType":"uint8","name":"currentTurn","type":"uint8"},{"internalType":"enum FateboundCore.GameStatus","name":"status","type":"uint8"},{"internalType":"enum TurnVerifier.TurnResult","name":"result","type":"uint8"}],"stateMutability":"view","type":"function"},{"inputs":[{"internalType":"uint256","name":"gameId","type":"uint256"}],"name":"getGameStateHash","outputs":[{"internalType":"bytes32","name":"","type":"bytes32"}],"stateMutability":"view","type":"function"},{"inputs":[{"internalType":"bytes32","name":"seed","type":"bytes32"},{"internalType":"uint8","name":"turn","type":"uint8"}],"name":"getHand","outputs":[{"components":[{"internalType":"uint8","name":"byteValue","type":"uint8"},{"internalType":"enum TurnVerifier.PacketType","name":"packetType","type":"uint8"},{"internalType":"uint8","name":"value","type":"uint8"}],"internalType":"struct TurnVerifier.Packet[]","name":"","type":"tuple[]"}],"stateMutability":"pure","type":"function"},{"inputs":[],"name":"getVRFFee","outputs":[{"internalType":"uint128","name":"","type":"uint128"}],"stateMutability":"view","type":"function"},{"inputs":[{"internalType":"address","name":"player","type":"address"}],"name":"hasActiveGame","outputs":[{"internalType":"bool","name":"","type":"bool"}],"stateMutability":"view","type":"function"},{"inputs":[{"internalType":"uint64","name":"","type":"uint64"}],"name":"sequenceToGameId","outputs":[{"internalType":"uint256","name":"","type":"uint256"}],"stateMutability":"view","type":"function"},{"inputs":[{"internalType":"bytes32","name":"seed","type":"bytes32"},{"components":[{"internalType":"uint16","name":"hp","type":"uint16"},{"internalType":"uint16","name":"maxHp","type":"uint16"},{"internalType":"uint16","name":"shield","type":"uint16"}],"internalType":"struct TurnVerifier.Player","name":"player","type":"tuple"},{"components":[{"internalType":"uint8","name":"id","type":"uint8"},{"internalType":"uint16","name":"hp","type":"uint16"},{"internalType":"uint16","name":"maxHp","type":"uint16"},{"internalType":"uint8","name":"damage","type":"uint8"},{"internalType":"bool","name":"isAttacking","type":"bool"},{"internalType":"bool","name":"isCache","type":"bool"}],"internalType":"struct TurnVerifier.Enemy[]","name":"enemies","type":"tuple[]"},{"internalType":"uint8","name":"turn","type":"uint8"},{"components":[{"internalType":"uint8","name":"packetIndex","type":"uint8"},{"internalType":"uint8","name":"targetType","type":"uint8"}],"internalType":"struct TurnVerifier.Assignment[]","name":"assignments","type":"tuple[]"},{"internalType":"uint32","name":"initialScore","type":"uint32"}],"name":"simulateTurn","outputs":[{"components":[{"internalType":"uint16","name":"hp","type":"uint16"},{"internalType":"uint16","name":"maxHp","type":"uint16"},{"internalType":"uint16","name":"shield","type":"uint16"}],"internalType":"struct TurnVerifier.Player","name":"newPlayer","type":"tuple"},{"components":[{"internalType":"uint8","name":"id","type":"uint8"},{"internalType":"uint16","name":"hp","type":"uint16"},{"internalType":"uint16","name":"maxHp","type":"uint16"},{"internalType":"uint8","name":"damage","type":"uint8"},{"internalType":"bool","name":"isAttacking","type":"bool"},{"internalType":"bool","name":"isCache","type":"bool"}],"internalType":"struct TurnVerifier.Enemy[]","name":"newEnemies","type":"tuple[]"},{"internalType":"enum TurnVerifier.TurnResult","name":"result","type":"uint8"},{"internalType":"uint32","name":"newScore","type":"uint32"}],"stateMutability":"pure","type":"function"},{"inputs":[],"name":"startGame","outputs":[{"internalType":"uint256","name":"gameId","type":"uint256"},{"internalType":"uint64","name":"sequenceNumber","type":"uint64"}],"stateMutability":"payable","type":"function"},{"inputs":[{"internalType":"uint256","name":"gameId","type":"uint256"},{"components":[{"internalType":"uint16","name":"hp","type":"uint16"},{"internalType":"uint16","name":"maxHp","type":"uint16"},{"internalType":"uint16","name":"shield","type":"uint16"}],"internalType":"struct TurnVerifier.Player","name":"player","type":"tuple"},{"components":[{"internalType":"uint8","name":"id","type":"uint8"},{"internalType":"uint16","name":"hp","type":"uint16"},{"internalType":"uint16","name":"maxHp","type":"uint16"},{"internalType":"uint8","name":"damage","type":"uint8"},{"internalType":"bool","name":"isAttacking","type":"bool"},{"internalType":"bool","name":"isCache","type":"bool"}],"internalType":"struct TurnVerifier.Enemy[]","name":"enemies","type":"tuple[]"},{"components":[{"internalType":"uint8","name":"packetIndex","type":"uint8"},{"internalType":"uint8","name":"targetType","type":"uint8"}],"internalType":"struct TurnVerifier.Assignment[]","name":"assignments","type":"tuple[]"}],"name":"submitTurn","outputs":[],"stateMutability":"nonpayable","type":"function"},{"stateMutability":"payable","type":"receive"}],"evm":{"bytecode":{"linkReferences":{},"object":"608060405234801561001057600080fd5b506127a4806100206000396000f3fe6080604052600436106100f75760003560e01c806398be22f71161008a578063d65ab5f211610059578063d65ab5f2146103a9578063e9f00787146103ce578063f0034a7e146103fe578063f104a80d1461042b57600080fd5b806398be22f7146102b2578063a2f77bcc146102d2578063a465a0641461034c578063d16dcb951461037c57600080fd5b80635ef3bc0b116100c65780635ef3bc0b146101f8578063692be93b146102255780636af09dfa14610265578063912cd4aa1461028557600080fd5b8063117a5b90146101035780632e0be39a14610192578063305dc415146101b657806352a5f1f8146101d857600080fd5b366100fe57005b600080fd5b34801561010f57600080fd5b5061017661011e366004611d2c565b600160208190526000918252604090912080549181015460028201546003909201546001600160a01b039093169290919060ff8082169163ffffffff61010082041691600160281b8204811691600160301b90041687565b6040516101899796959493929190611d7f565b60405180910390f35b34801561019e57600080fd5b506101a860005481565b604051908152602001610189565b3480156101c257600080fd5b506101d66101d1366004611df1565b61045b565b005b3480156101e457600080fd5b506101d66101f3366004611e55565b610555565b34801561020457600080fd5b506101a8610213366004611e83565b60036020526000908152604090205481565b34801561023157600080fd5b5061024d73825c0390f379c631f3cf11a82a37d20bddf93c0781565b6040516001600160a01b039091168152602001610189565b34801561027157600080fd5b506101d6610280366004612174565b610762565b34801561029157600080fd5b506102a56102a03660046121f2565b610a1c565b604051610189919061221e565b3480156102be57600080fd5b506101d66102cd366004611d2c565b610a31565b3480156102de57600080fd5b5061033a6102ed366004611d2c565b600090815260016020819052604090912080549181015460028201546003909201546001600160a01b0390931693909260ff80821692600160281b8304821692600160301b900490911690565b6040516101899695949392919061228d565b34801561035857600080fd5b506101a8610367366004611d2c565b60009081526001602052604090206002015490565b34801561038857600080fd5b506101a86103973660046122d9565b60026020526000908152604090205481565b6103b1610b44565b604080519283526001600160401b03909116602083015201610189565b3480156103da57600080fd5b506103ee6103e93660046122f4565b610f38565b6040516101899493929190612393565b34801561040a57600080fd5b50610413610f7c565b6040516001600160801b039091168152602001610189565b34801561043757600080fd5b5061044b6104463660046122d9565b610ff9565b6040519015158152602001610189565b600083815260016020526040902080546001600160a01b0316331461049b5760405162461bcd60e51b815260040161049290612460565b60405180910390fd5b6002600382810154600160281b900460ff16908111156104bd576104bd611d45565b146104da5760405162461bcd60e51b815260040161049290612487565b60038101805466ffffffffffff0019811661010063ffffffff871602908117660103000000000017909255604051339287927fdc50db4eb04a753d55f5cda3fe208ee93b06b98aa0c4769a969824fdb47c46ec926105479260019260ff90811691161790899089906124b0565b60405180910390a350505050565b3373825c0390f379c631f3cf11a82a37d20bddf93c07146105b85760405162461bcd60e51b815260206004820152601e60248201527f4f6e6c7920456e74726f707920636f6e74726163742063616e2063616c6c00006044820152606401610492565b6001600160401b038316600090815260036020526040812054908190036106215760405162461bcd60e51b815260206004820152601760248201527f556e6b6e6f776e2073657175656e6365206e756d6265720000000000000000006044820152606401610492565b600081815260016020819052604090912090600382810154600160281b900460ff169081111561065357610653611d45565b146106a05760405162461bcd60e51b815260206004820152601860248201527f47616d65206e6f742077616974696e6720666f722056524600000000000000006044820152606401610492565b6001810183905560038101805465ff00000000ff19166502000000000117905560408051606081018252606480825260208201526000918101829052906106e5611077565b90506106f58282600160006111b0565b60028401556001600160401b038716600090815260036020908152604080832092909255845491518781526001600160a01b039092169186917fc63a891a22ac932ad47ce11dc7db2669046ac95b4049d199495392b68f4d0114910160405180910390a350505050505050565b600084815260016020526040902080546001600160a01b031633146107995760405162461bcd60e51b815260040161049290612460565b6002600382810154600160281b900460ff16908111156107bb576107bb611d45565b146107d85760405162461bcd60e51b815260040161049290612487565b60038101546000906107fd908690869060ff811690610100900463ffffffff166111b0565b90508160020154811461085d5760405162461bcd60e51b815260206004820152602260248201527f5374617465206d69736d61746368202d20696e76616c6964207072652d737461604482015261746560f01b6064820152608401610492565b6001820154600383015460009182918291829161089091908b908b9060ff8116908c90610100900463ffffffff16611307565b60038a018054949850929650909450925060ff9091169060006108b2836124f8565b825460ff91821661010093840a908102908302199091161790925560038901805463ffffffff861690920264ffffffff001983168117909155610900935087928792918116911617846111b0565b600287015560038601548a907f0692853b8d20bf806eadd662c4f5fd6f7c418db70a96783d8418d00be1ea64b79061093d9060019060ff16612517565b88600201548560405161095293929190612530565b60405180910390a2600082600281111561096e5761096e611d45565b14610a10576003860180546503000000000065ff00000000001982168117835584929166ffff0000000000191617600160301b8360028111156109b3576109b3611d45565b0217905550600386015433908b907fdc50db4eb04a753d55f5cda3fe208ee93b06b98aa0c4769a969824fdb47c46ec9085906109f49060019060ff16612517565b604051610a0792919087906000906124b0565b60405180910390a35b50505050505050505050565b6060610a2883836116c5565b90505b92915050565b600081815260016020526040902080546001600160a01b03163314610a685760405162461bcd60e51b815260040161049290612460565b6002600382810154600160281b900460ff1690811115610a8a57610a8a611d45565b1480610ab557506001600382810154600160281b900460ff1690811115610ab357610ab3611d45565b145b610ad15760405162461bcd60e51b815260040161049290612487565b60038101805466ffff000000000019811666020300000000001791829055604051339285927fdc50db4eb04a753d55f5cda3fe208ee93b06b98aa0c4769a969824fdb47c46ec92610b389260029260ff169161010090910463ffffffff16906000906124b0565b60405180910390a35050565b3360009081526002602052604081205481908015610c08576000818152600160205260409020600390810154600160281b900460ff1690816003811115610b8d57610b8d611d45565b1480610baa57506000816003811115610ba857610ba8611d45565b145b610c065760405162461bcd60e51b815260206004820152602760248201527f436f6d706c657465206f7220666f7266656974206578697374696e672067616d6044820152661948199a5c9cdd60ca1b6064820152608401610492565b505b600073825c0390f379c631f3cf11a82a37d20bddf93c076001600160a01b0316638204b67a6040518163ffffffff1660e01b8152600401602060405180830381865afa158015610c5c573d6000803e3d6000fd5b505050506040513d601f19601f82011682018060405250810190610c80919061254e565b9050806001600160801b0316341015610cdb5760405162461bcd60e51b815260206004820152601860248201527f496e73756666696369656e742066656520666f722056524600000000000000006044820152606401610492565b600080549080610cea83612577565b9091555050600080546040805160e08101825233815260208082018581528284018681526060840187815260808501888152600160a0870181815260c088018b9052898b529581905296909820855181546001600160a01b039091166001600160a01b0319909116178155925195830195909555516002820155925160038085018054975163ffffffff166101000264ffffffffff1990981660ff90931692909217969096178082559151949950919492939265ff00000000001990911690600160281b908490811115610dc057610dc0611d45565b021790555060c082015160038201805466ff0000000000001916600160301b836002811115610df157610df1611d45565b021790555050336000908152600260209081526040918290208790558151637b43155d60e01b8152915173825c0390f379c631f3cf11a82a37d20bddf93c079350637b43155d926001600160801b038616926004808301939192829003018185885af1158015610e65573d6000803e3d6000fd5b50505050506040513d601f19601f82011682018060405250810190610e8a9190612590565b6001600160401b0381166000818152600360209081526040918290208890559051918252919450339186917fb420ce9d7328f401e14f0e6d53ac032b75a72c843dfc5b570855ca7ac838b63a910160405180910390a3806001600160801b0316341115610f3257336108fc610f086001600160801b038416346125ad565b6040518115909202916000818181858888f19350505050158015610f30573d6000803e3d6000fd5b505b50509091565b60408051606081018252600080825260208201819052918101919091526060600080610f688a8a8a8a8a8a611307565b929d919c509a509098509650505050505050565b600073825c0390f379c631f3cf11a82a37d20bddf93c076001600160a01b0316638204b67a6040518163ffffffff1660e01b8152600401602060405180830381865afa158015610fd0573d6000803e3d6000fd5b505050506040513d601f19601f82011682018060405250810190610ff4919061254e565b905090565b6001600160a01b0381166000908152600260205260408120548082036110225750600092915050565b600081815260016020526040902060030154600160281b900460ff16600281600381111561105257611052611d45565b148061106f5750600181600381111561106d5761106d611d45565b145b949350505050565b6040805160038082526080820190925260609160009190816020015b61109b611cf7565b8152602001906001900390816110935750506040805160c081018252600080825260146020830181905292820192909252600560608201526001608082015260a081018290528251929350918391906110f6576110f66125c0565b6020908102919091018101919091526040805160c0810182526001808252600f938201849052918101929092526003606083015260808201819052600060a08301528251839190811061114b5761114b6125c0565b6020908102919091018101919091526040805160c0810182526002808252601e938201849052918101929092526008606083015260006080830181905260a0830152825183919081106111a0576111a06125c0565b6020908102919091010152919050565b6000606060005b85518160ff1610156112c45781868260ff16815181106111d9576111d96125c0565b602002602001015160000151878360ff16815181106111fa576111fa6125c0565b602002602001015160200151888460ff168151811061121b5761121b6125c0565b602002602001015160400151898560ff168151811061123c5761123c6125c0565b6020026020010151606001518a8660ff168151811061125d5761125d6125c0565b6020026020010151608001518b8760ff168151811061127e5761127e6125c0565b602002602001015160a001516040516020016112a09796959493929190612606565b604051602081830303815290604052915080806112bc906124f8565b9150506111b7565b5085516020808801516040808a015190516112e694938991899188910161266f565b60405160208183030381529060405280519060200120915050949350505050565b6040805160608101825260008082526020820181905291810191909152606060008060006113358b896116c5565b905080518751146113885760405162461bcd60e51b815260206004820152601860248201527f496e76616c69642061737369676e6d656e7420636f756e7400000000000000006044820152606401610492565b89945085915088516001600160401b038111156113a7576113a7611ea7565b6040519080825280602002602001820160405280156113e057816020015b6113cd611cf7565b8152602001906001900390816113c55790505b50935060005b89518160ff16101561144257898160ff1681518110611407576114076125c0565b6020026020010151858260ff1681518110611424576114246125c0565b6020026020010181905250808061143a906124f8565b9150506113e6565b5060005b87518160ff16101561159c57600082898360ff168151811061146a5761146a6125c0565b60200260200101516000015160ff1681518110611489576114896125c0565b602002602001015190506000898360ff16815181106114aa576114aa6125c0565b60200260200101516020015190508060ff166000036114ca57505061158a565b8060ff166001036114e6576114df88836117fa565b9750611587565b60006114f3600283612517565b905087518160ff161061153f5760405162461bcd60e51b8152602060048201526014602482015273125b9d985b1a5908195b995b5e481d185c99d95d60621b6044820152606401610492565b611565888260ff1681518110611557576115576125c0565b6020026020010151846118bc565b888260ff168151811061157a5761157a6125c0565b6020026020010181905250505b50505b80611594816124f8565b915050611446565b5060005b84518160ff1610156116505760008a8260ff16815181106115c3576115c36125c0565b60200260200101516020015161ffff161180156116045750848160ff16815181106115f0576115f06125c0565b60200260200101516020015161ffff166000145b1561163e57848160ff168151811061161e5761161e6125c0565b602002602001015160a001511561163e5761163b6103e8846126cb565b92505b80611648816124f8565b9150506115a0565b5061165b8585611980565b9250600083600281111561167157611671611d45565b0361168f576116808585611a0b565b945061168c8585611980565b92505b60018360028111156116a3576116a3611d45565b036116b7576116b46101f4836126cb565b91505b509650965096509692505050565b606060006116d283611ad5565b905060006116e08585611aed565b90508160ff166001600160401b038111156116fd576116fd611ea7565b60405190808252806020026020018201604052801561174857816020015b604080516060810182526000808252602080830182905292820152825260001990920191018161171b5790505b50925060005b8260ff168160ff1610156117f15760008261176a6020846126ef565b60ff166020811061177d5761177d6125c0565b1a9050600061178b82611b43565b905060405180606001604052808360ff1681526020018260048111156117b3576117b3611d45565b81526020016117c183611b99565b60ff16815250868460ff16815181106117dc576117dc6125c0565b6020908102919091010152505060010161174e565b50505092915050565b604080516060810182526000808252602080830182905292820152908201516004908181111561182c5761182c611d45565b03611877576000826040015160ff16846000015161184a919061271f565b9050836020015161ffff168161ffff1611611865578061186b565b83602001515b61ffff168452506118b5565b60028260200151600481111561188f5761188f611d45565b036118b557816040015160ff16836040018181516118ad919061271f565b61ffff169052505b5090919050565b6118c4611cf7565b8260a00151156118fa576003826020015160048111156118e6576118e6611d45565b036118f357600060208401525b5081610a2b565b60018260200151600481111561191257611912611d45565b1480611933575060038260200151600481111561193157611931611d45565b145b156118b557816040015160ff16836020015161ffff16111561197457816040015160ff1683602001818151611968919061273a565b61ffff169052506118b5565b50506000602082015290565b815160009061ffff16810361199757506002610a2b565b600160005b83518160ff1610156119f0576000848260ff16815181106119bf576119bf6125c0565b60200260200101516020015161ffff1611156119de57600091506119f0565b806119e8816124f8565b91505061199c565b508015611a01576001915050610a2b565b5060009392505050565b60408051606081018252600080825260208201819052918101829052905b82518160ff161015611acd576000838260ff1681518110611a4c57611a4c6125c0565b60200260200101516020015161ffff16118015611a865750828160ff1681518110611a7957611a796125c0565b6020026020010151608001515b15611abb57611ab884848360ff1681518110611aa457611aa46125c0565b60200260200101516060015160ff16611c47565b93505b80611ac5816124f8565b915050611a29565b509192915050565b6000611ae26003836126ef565b610a2b906005612755565b60008282604051602001611b25929190918252632a3ab93760e11b602083015260f81b6001600160f81b031916602482015260250190565b60405160208183030381529060405280519060200120905092915050565b6000601360ff831611611b5857506000919050565b609660ff831611611b6b57506001919050565b60c860ff831611611b7e57506002919050565b60f060ff831611611b9157506003919050565b506004919050565b600080826004811115611bae57611bae611d45565b03611bbb57506000919050565b6001826004811115611bcf57611bcf611d45565b03611bdc57506005919050565b6002826004811115611bf057611bf0611d45565b03611bfd57506005919050565b6003826004811115611c1157611c11611d45565b03611c1e5750600f919050565b6004826004811115611c3257611c32611d45565b03611c3f5750600a919050565b506000919050565b604080516060810182526000808252602082018190528183015290830151829061ffff1615611cbf578061ffff16846040015161ffff1610611ca6578084604001818151611c95919061273a565b61ffff16905250839150610a2b9050565b6040840151611cb5908261273a565b6000604086015290505b835161ffff80831691161115611ced578084600001818151611ce1919061273a565b61ffff16905250611acd565b5050600082525090565b6040805160c081018252600080825260208201819052918101829052606081018290526080810182905260a081019190915290565b600060208284031215611d3e57600080fd5b5035919050565b634e487b7160e01b600052602160045260246000fd5b60048110611d6b57611d6b611d45565b9052565b60038110611d6b57611d6b611d45565b6001600160a01b0388168152602081018790526040810186905260ff8516606082015263ffffffff8416608082015260e08101611dbf60a0830185611d5b565b611dcc60c0830184611d6f565b98975050505050505050565b803563ffffffff81168114611dec57600080fd5b919050565b600080600060608486031215611e0657600080fd5b83359250611e1660208501611dd8565b9150604084013590509250925092565b6001600160401b0381168114611e3b57600080fd5b50565b80356001600160a01b0381168114611dec57600080fd5b600080600060608486031215611e6a57600080fd5b8335611e7581611e26565b9250611e1660208501611e3e565b600060208284031215611e9557600080fd5b8135611ea081611e26565b9392505050565b634e487b7160e01b600052604160045260246000fd5b60405160c081016001600160401b0381118282101715611edf57611edf611ea7565b60405290565b604080519081016001600160401b0381118282101715611edf57611edf611ea7565b604051601f8201601f191681016001600160401b0381118282101715611f2f57611f2f611ea7565b604052919050565b803561ffff81168114611dec57600080fd5b600060608284031215611f5b57600080fd5b604051606081018181106001600160401b0382111715611f7d57611f7d611ea7565b604052905080611f8c83611f37565b8152611f9a60208401611f37565b6020820152611fab60408401611f37565b60408201525092915050565b60006001600160401b03821115611fd057611fd0611ea7565b5060051b60200190565b803560ff81168114611dec57600080fd5b80358015158114611dec57600080fd5b600082601f83011261200c57600080fd5b8135602061202161201c83611fb7565b611f07565b82815260c0928302850182019282820191908785111561204057600080fd5b8387015b858110156120cf5781818a03121561205c5760008081fd5b612064611ebd565b61206d82611fda565b815261207a868301611f37565b86820152604061208b818401611f37565b90820152606061209c838201611fda565b9082015260806120ad838201611feb565b9082015260a06120be838201611feb565b908201528452928401928101612044565b5090979650505050505050565b600082601f8301126120ed57600080fd5b813560206120fd61201c83611fb7565b82815260069290921b8401810191818101908684111561211c57600080fd5b8286015b8481101561216957604081890312156121395760008081fd5b612141611ee5565b61214a82611fda565b8152612157858301611fda565b81860152835291830191604001612120565b509695505050505050565b60008060008060c0858703121561218a57600080fd5b8435935061219b8660208701611f49565b925060808501356001600160401b03808211156121b757600080fd5b6121c388838901611ffb565b935060a08701359150808211156121d957600080fd5b506121e6878288016120dc565b91505092959194509250565b6000806040838503121561220557600080fd5b8235915061221560208401611fda565b90509250929050565b602080825282518282018190526000919060409081850190868401855b8281101561228057815160ff808251168652878201516005811061226157612261611d45565b868901529086015116858501526060909301929085019060010161223b565b5091979650505050505050565b6001600160a01b0387168152602081018690526040810185905260ff8416606082015260c081016122c16080830185611d5b565b6122ce60a0830184611d6f565b979650505050505050565b6000602082840312156122eb57600080fd5b610a2882611e3e565b600080600080600080610100878903121561230e57600080fd5b8635955061231f8860208901611f49565b945060808701356001600160401b038082111561233b57600080fd5b6123478a838b01611ffb565b955061235560a08a01611fda565b945060c089013591508082111561236b57600080fd5b5061237889828a016120dc565b92505061238760e08801611dd8565b90509295509295509295565b600060c080830161ffff808951168552602081818b0151168187015260408260408c0151166040880152606060c06060890152848b5180875260e08a019150848d01965060005b81811015612432578751805160ff9081168552878201518916888601528682015189168786015285820151168585015260808082015115159085015260a09081015115159084015296850196918801916001016123da565b50508097505050505050505061244b6080830185611d6f565b63ffffffff831660a083015295945050505050565b6020808252600d908201526c4e6f7420796f75722067616d6560981b604082015260600190565b6020808252600f908201526e47616d65206e6f742061637469766560881b604082015260600190565b608081016124be8287611d6f565b60ff8516602083015263ffffffff8416604083015282606083015295945050505050565b634e487b7160e01b600052601160045260246000fd5b600060ff821660ff810361250e5761250e6124e2565b60010192915050565b60ff8281168282160390811115610a2b57610a2b6124e2565b60ff84168152602081018390526060810161106f6040830184611d6f565b60006020828403121561256057600080fd5b81516001600160801b0381168114611ea057600080fd5b600060018201612589576125896124e2565b5060010190565b6000602082840312156125a257600080fd5b8151611ea081611e26565b81810381811115610a2b57610a2b6124e2565b634e487b7160e01b600052603260045260246000fd5b6000815160005b818110156125f757602081850181015186830152016125dd565b50600093019283525090919050565b6000612612828a6125d6565b6001600160f81b031960f8998a1b811682526001600160f01b031960f0998a1b811660018401529790981b9096166003870152505091851b9093166005830152911515831b600682015290151590911b6007820152600801919050565b6001600160f01b031960f088811b8216835287811b8216600284015286901b1660048201526001600160f81b031960f885901b1660068201526001600160e01b031960e084901b1660078201526000611dcc600b8301846125d6565b63ffffffff8181168382160190808211156126e8576126e86124e2565b5092915050565b600060ff83168061271057634e487b7160e01b600052601260045260246000fd5b8060ff84160691505092915050565b61ffff8181168382160190808211156126e8576126e86124e2565b61ffff8281168282160390808211156126e8576126e86124e2565b60ff8181168382160190811115610a2b57610a2b6124e256fea2646970667358221220999dc140528ddc12e79e8ebcf14d79d25f997e1648036a49b7d430448b2e216964736f6c63430008180033","opcodes":"PUSH1 0x80 PUSH1 0x40 MSTORE CALLVALUE DUP1 ISZERO PUSH2 0x10 JUMPI PUSH1 0x0 DUP1 REVERT JUMPDEST POP PUSH2 0x27A4 DUP1 PUSH2 0x20 PUSH1 0x0 CODECOPY PUSH1 0x0 RETURN INVALID PUSH1 0x80 PUSH1 0x40 MSTORE PUSH1 0x4 CALLDATASIZE LT PUSH2 0xF7 JUMPI PUSH1 0x0 CALLDATALOAD PUSH1 0xE0 SHR DUP1 PUSH4 0x98BE22F7 GT PUSH2 0x8A JUMPI DUP1 PUSH4 0xD65AB5F2 GT PUSH2 0x59 JUMPI DUP1 PUSH4 0xD65AB5F2 EQ PUSH2 0x3A9 JUMPI DUP1 PUSH4 0xE9F00787 EQ PUSH2 0x3CE JUMPI DUP1 PUSH4 0xF0034A7E EQ PUSH2 0x3FE JUMPI DUP1 PUSH4 0xF104A80D EQ PUSH2 0x42B JUMPI PUSH1 0x0 DUP1 REVERT JUMPDEST DUP1 PUSH4 0x98BE22F7 EQ PUSH2 0x2B2 JUMPI DUP1 PUSH4 0xA2F77BCC EQ PUSH2 0x2D2 JUMPI DUP1 PUSH4 0xA465A064 EQ PUSH2 0x34C JUMPI DUP1 PUSH4 0xD16DCB95 EQ PUSH2 0x37C JUMPI PUSH1 0x0 DUP1 REVERT JUMPDEST DUP1 PUSH4 0x5EF3BC0B GT PUSH2 0xC6 JUMPI DUP1 PUSH4 0x5EF3BC0B EQ PUSH2 0x1F8 JUMPI DUP1 PUSH4 0x692BE93B EQ PUSH2 0x225 JUMPI DUP1 PUSH4 0x6AF09DFA EQ PUSH2 0x265 JUMPI DUP1 PUSH4 0x912CD4AA EQ PUSH2 0x285 JUMPI PUSH1 0x0 DUP1 REVERT JUMPDEST DUP1 PUSH4 0x117A5B90 EQ PUSH2 0x103 JUMPI DUP1 PUSH4 0x2E0BE39A EQ PUSH2 0x192 JUMPI DUP1 PUSH4 0x305DC415 EQ PUSH2 0x1B6 JUMPI DUP1 PUSH4 0x52A5F1F8 EQ PUSH2 0x1D8 JUMPI PUSH1 0x0 DUP1 REVERT JUMPDEST CALLDATASIZE PUSH2 0xFE JUMPI STOP JUMPDEST PUSH1 0x0 DUP1 REVERT JUMPDEST CALLVALUE DUP1 ISZERO PUSH2 0x10F JUMPI PUSH1 0x0 DUP1 REVERT JUMPDEST POP PUSH2 0x176 PUSH2 0x11E CALLDATASIZE PUSH1 0x4 PUSH2 0x1D2C JUMP JUMPDEST PUSH1 0x1 PUSH1 0x20 DUP2 SWAP1 MSTORE PUSH1 0x0 SWAP2 DUP3 MSTORE PUSH1 0x40 SWAP1 SWAP2 KECCAK256 DUP1 SLOAD SWAP2 DUP2 ADD SLOAD PUSH1 0x2 DUP3 ADD SLOAD PUSH1 0x3 SWAP1 SWAP3 ADD SLOAD PUSH1 0x1 PUSH1 0x1 PUSH1 0xA0 SHL SUB SWAP1 SWAP4 AND SWAP3 SWAP1 SWAP2 SWAP1 PUSH1 0xFF DUP1 DUP3 AND SWAP2 PUSH4 0xFFFFFFFF PUSH2 0x100 DUP3 DIV AND SWAP2 PUSH1 0x1 PUSH1 0x28 SHL DUP3 DIV DUP2 AND SWAP2 PUSH1 0x1 PUSH1 0x30 SHL SWAP1 DIV AND DUP8 JUMP JUMPDEST PUSH1 0x40 MLOAD PUSH2 0x189 SWAP8 SWAP7 SWAP6 SWAP5 SWAP4 SWAP3 SWAP2 SWAP1 PUSH2 0x1D7F JUMP JUMPDEST PUSH1 0x40 MLOAD DUP1 SWAP2 SUB SWAP1 RETURN JUMPDEST CALLVALUE DUP1 ISZERO PUSH2 0x19E JUMPI PUSH1 0x0 DUP1 REVERT JUMPDEST POP PUSH2 0x1A8 PUSH1 0x0 SLOAD DUP2 JUMP JUMPDEST PUSH1 0x40 MLOAD SWAP1 DUP2 MSTORE PUSH1 0x20 ADD PUSH2 0x189 JUMP JUMPDEST CALLVALUE DUP1 ISZERO PUSH2 0x1C2 JUMPI PUSH1 0x0 DUP1 REVERT JUMPDEST POP PUSH2 0x1D6 PUSH2 0x1D1 CALLDATASIZE PUSH1 0x4 PUSH2 0x1DF1 JUMP JUMPDEST PUSH2 0x45B JUMP JUMPDEST STOP JUMPDEST CALLVALUE DUP1 ISZERO PUSH2 0x1E4 JUMPI PUSH1 0x0 DUP1 REVERT JUMPDEST POP PUSH2 0x1D6 PUSH2 0x1F3 CALLDATASIZE PUSH1 0x4 PUSH2 0x1E55 JUMP JUMPDEST PUSH2 0x555 JUMP JUMPDEST CALLVALUE DUP1 ISZERO PUSH2 0x204 JUMPI PUSH1 0x0 DUP1 REVERT JUMPDEST POP PUSH2 0x1A8 PUSH2 0x213 CALLDATASIZE PUSH1 0x4 PUSH2 0x1E83 JUMP JUMPDEST PUSH1 0x3 PUSH1 0x20 MSTORE PUSH1 0x0 SWAP1 DUP2 MSTORE PUSH1 0x40 SWAP1 KECCAK256 SLOAD DUP2 JUMP JUMPDEST CALLVALUE DUP1 ISZERO PUSH2 0x231 JUMPI PUSH1 0x0 DUP1 REVERT JUMPDEST POP PUSH2 0x24D PUSH20 0x825C0390F379C631F3CF11A82A37D20BDDF93C07 DUP2 JUMP JUMPDEST PUSH1 0x40 MLOAD PUSH1 0x1 PUSH1 0x1 PUSH1 0xA0 SHL SUB SWAP1 SWAP2 AND DUP2 MSTORE PUSH1 0x20 ADD PUSH2 0x189 JUMP JUMPDEST CALLVALUE DUP1 ISZERO PUSH2 0x271 JUMPI PUSH1 0x0 DUP1 REVERT JUMPDEST POP PUSH2 0x1D6 PUSH2 0x280 CALLDATASIZE PUSH1 0x4 PUSH2 0x2174 JUMP JUMPDEST PUSH2 0x762 JUMP JUMPDEST CALLVALUE DUP1 ISZERO PUSH2 0x291 JUMPI PUSH1 0x0 DUP1 REVERT JUMPDEST POP PUSH2 0x2A5 PUSH2 0x2A0 CALLDATASIZE PUSH1 0x4 PUSH2 0x21F2 JUMP JUMPDEST PUSH2 0xA1C JUMP JUMPDEST PUSH1 0x40 MLOAD PUSH2 0x189 SWAP2 SWAP1 PUSH2 0x221E JUMP JUMPDEST CALLVALUE DUP1 ISZERO PUSH2 0x2BE JUMPI PUSH1 0x0 DUP1 REVERT JUMPDEST POP PUSH2 0x1D6 PUSH2 0x2CD CALLDATASIZE PUSH1 0x4 PUSH2 0x1D2C JUMP JUMPDEST PUSH2 0xA31 JUMP JUMPDEST CALLVALUE DUP1 ISZERO PUSH2 0x2DE JUMPI PUSH1 0x0 DUP1 REVERT JUMPDEST POP PUSH2 0x33A PUSH2 0x2ED CALLDATASIZE PUSH1 0x4 PUSH2 0x1D2C JUMP JUMPDEST PUSH1 0x0 SWAP1 DUP2 MSTORE PUSH1 0x1 PUSH1 0x20 DUP2 SWAP1 MSTORE PUSH1 0x40 SWAP1 SWAP2 KECCAK256 DUP1 SLOAD SWAP2 DUP2 ADD SLOAD PUSH1 0x2 DUP3 ADD SLOAD PUSH1 0x3 SWAP1 SWAP3 ADD SLOAD PUSH1 0x1 PUSH1 0x1 PUSH1 0xA0 SHL SUB SWAP1 SWAP4 AND SWAP4 SWAP1 SWAP3 PUSH1 0xFF DUP1 DUP3 AND SWAP3 PUSH1 0x1 PUSH1 0x28 SHL DUP4 DIV DUP3 AND SWAP3 PUSH1 0x1 PUSH1 0x30 SHL SWAP1 DIV SWAP1 SWAP2 AND SWAP1 JUMP JUMPDEST PUSH1 0x40 MLOAD PUSH2 0x189 SWAP7 SWAP6 SWAP5 SWAP4 SWAP3 SWAP2 SWAP1 PUSH2 0x228D JUMP JUMPDEST CALLVALUE DUP1 ISZERO PUSH2 0x358 JUMPI PUSH1 0x0 DUP1 REVERT JUMPDEST POP PUSH2 0x1A8 PUSH2 0x367 CALLDATASIZE PUSH1 0x4 PUSH2 0x1D2C JUMP JUMPDEST PUSH1 0x0 SWAP1 DUP2 MSTORE PUSH1 0x1 PUSH1 0x20 MSTORE PUSH1 0x40 SWAP1 KECCAK256 PUSH1 0x2 ADD SLOAD SWAP1 JUMP JUMPDEST CALLVALUE DUP1 ISZERO PUSH2 0x388 JUMPI PUSH1 0x0 DUP1 REVERT JUMPDEST POP PUSH2 0x1A8 PUSH2 0x397 CALLDATASIZE PUSH1 0x4 PUSH2 0x22D9 JUMP JUMPDEST PUSH1 0x2 PUSH1 0x20 MSTORE PUSH1 0x0 SWAP1 DUP2 MSTORE PUSH1 0x40 SWAP1 KECCAK256 SLOAD DUP2 JUMP JUMPDEST PUSH2 0x3B1 PUSH2 0xB44 JUMP JUMPDEST PUSH1 0x40 DUP1 MLOAD SWAP3 DUP4 MSTORE PUSH1 0x1 PUSH1 0x1 PUSH1 0x40 SHL SUB SWAP1 SWAP2 AND PUSH1 0x20 DUP4 ADD MSTORE ADD PUSH2 0x189 JUMP JUMPDEST CALLVALUE DUP1 ISZERO PUSH2 0x3DA JUMPI PUSH1 0x0 DUP1 REVERT JUMPDEST POP PUSH2 0x3EE PUSH2 0x3E9 CALLDATASIZE PUSH1 0x4 PUSH2 0x22F4 JUMP JUMPDEST PUSH2 0xF38 JUMP JUMPDEST PUSH1 0x40 MLOAD PUSH2 0x189 SWAP5 SWAP4 SWAP3 SWAP2 SWAP1 PUSH2 0x2393 JUMP JUMPDEST CALLVALUE DUP1 ISZERO PUSH2 0x40A JUMPI PUSH1 0x0 DUP1 REVERT JUMPDEST POP PUSH2 0x413 PUSH2 0xF7C JUMP JUMPDEST PUSH1 0x40 MLOAD PUSH1 0x1 PUSH1 0x1 PUSH1 0x80 SHL SUB SWAP1 SWAP2 AND DUP2 MSTORE PUSH1 0x20 ADD PUSH2 0x189 JUMP JUMPDEST CALLVALUE DUP1 ISZERO PUSH2 0x437 JUMPI PUSH1 0x0 DUP1 REVERT JUMPDEST POP PUSH2 0x44B PUSH2 0x446 CALLDATASIZE PUSH1 0x4 PUSH2 0x22D9 JUMP JUMPDEST PUSH2 0xFF9 JUMP JUMPDEST PUSH1 0x40 MLOAD SWAP1 ISZERO ISZERO DUP2 MSTORE PUSH1 0x20 ADD PUSH2 0x189 JUMP JUMPDEST PUSH1 0x0 DUP4 DUP2 MSTORE PUSH1 0x1 PUSH1 0x20 MSTORE PUSH1 0x40 SWAP1 KECCAK256 DUP1 SLOAD PUSH1 0x1 PUSH1 0x1 PUSH1 0xA0 SHL SUB AND CALLER EQ PUSH2 0x49B JUMPI PUSH1 0x40 MLOAD PUSH3 0x461BCD PUSH1 0xE5 SHL DUP2 MSTORE PUSH1 0x4 ADD PUSH2 0x492 SWAP1 PUSH2 0x2460 JUMP JUMPDEST PUSH1 0x40 MLOAD DUP1 SWAP2 SUB SWAP1 REVERT JUMPDEST PUSH1 0x2 PUSH1 0x3 DUP3 DUP2 ADD SLOAD PUSH1 0x1 PUSH1 0x28 SHL SWAP1 DIV PUSH1 0xFF AND SWAP1 DUP2 GT ISZERO PUSH2 0x4BD JUMPI PUSH2 0x4BD PUSH2 0x1D45 JUMP JUMPDEST EQ PUSH2 0x4DA JUMPI PUSH1 0x40 MLOAD PUSH3 0x461BCD PUSH1 0xE5 SHL DUP2 MSTORE PUSH1 0x4 ADD PUSH2 0x492 SWAP1 PUSH2 0x2487 JUMP JUMPDEST PUSH1 0x3 DUP2 ADD DUP1 SLOAD PUSH7 0xFFFFFFFFFFFF00 NOT DUP2 AND PUSH2 0x100 PUSH4 0xFFFFFFFF DUP8 AND MUL SWAP1 DUP2 OR PUSH7 0x1030000000000 OR SWAP1 SWAP3 SSTORE PUSH1 0x40 MLOAD CALLER SWAP3 DUP8 SWAP3 PUSH32 0xDC50DB4EB04A753D55F5CDA3FE208EE93B06B98AA0C4769A969824FDB47C46EC SWAP3 PUSH2 0x547 SWAP3 PUSH1 0x1 SWAP3 PUSH1 0xFF SWAP1 DUP2 AND SWAP2 AND OR SWAP1 DUP10 SWAP1 DUP10 SWAP1 PUSH2 0x24B0 JUMP JUMPDEST PUSH1 0x40 MLOAD DUP1 SWAP2 SUB SWAP1 LOG3 POP POP POP POP JUMP JUMPDEST CALLER PUSH20 0x825C0390F379C631F3CF11A82A37D20BDDF93C07 EQ PUSH2 0x5B8 JUMPI PUSH1 0x40 MLOAD PUSH3 0x461BCD PUSH1 0xE5 SHL DUP2 MSTORE PUSH1 0x20 PUSH1 0x4 DUP3 ADD MSTORE PUSH1 0x1E PUSH1 0x24 DUP3 ADD MSTORE PUSH32 0x4F6E6C7920456E74726F707920636F6E74726163742063616E2063616C6C0000 PUSH1 0x44 DUP3 ADD MSTORE PUSH1 0x64 ADD PUSH2 0x492 JUMP JUMPDEST PUSH1 0x1 PUSH1 0x1 PUSH1 0x40 SHL SUB DUP4 AND PUSH1 0x0 SWAP1 DUP2 MSTORE PUSH1 0x3 PUSH1 0x20 MSTORE PUSH1 0x40 DUP2 KECCAK256 SLOAD SWAP1 DUP2 SWAP1 SUB PUSH2 0x621 JUMPI PUSH1 0x40 MLOAD PUSH3 0x461BCD PUSH1 0xE5 SHL DUP2 MSTORE PUSH1 0x20 PUSH1 0x4 DUP3 ADD MSTORE PUSH1 0x17 PUSH1 0x24 DUP3 ADD MSTORE PUSH32 0x556E6B6E6F776E2073657175656E6365206E756D626572000000000000000000 PUSH1 0x44 DUP3 ADD MSTORE PUSH1 0x64 ADD PUSH2 0x492 JUMP JUMPDEST PUSH1 0x0 DUP2 DUP2 MSTORE PUSH1 0x1 PUSH1 0x20 DUP2 SWAP1 MSTORE PUSH1 0x40 SWAP1 SWAP2 KECCAK256 SWAP1 PUSH1 0x3 DUP3 DUP2 ADD SLOAD PUSH1 0x1 PUSH1 0x28 SHL SWAP1 DIV PUSH1 0xFF AND SWAP1 DUP2 GT ISZERO PUSH2 0x653 JUMPI PUSH2 0x653 PUSH2 0x1D45 JUMP JUMPDEST EQ PUSH2 0x6A0 JUMPI PUSH1 0x40 MLOAD PUSH3 0x461BCD PUSH1 0xE5 SHL DUP2 MSTORE PUSH1 0x20 PUSH1 0x4 DUP3 ADD MSTORE PUSH1 0x18 PUSH1 0x24 DUP3 ADD MSTORE PUSH32 0x47616D65206E6F742077616974696E6720666F72205652460000000000000000 PUSH1 0x44 DUP3 ADD MSTORE PUSH1 0x64 ADD PUSH2 0x492 JUMP JUMPDEST PUSH1 0x1 DUP2 ADD DUP4 SWAP1 SSTORE PUSH1 0x3 DUP2 ADD DUP1 SLOAD PUSH6 0xFF00000000FF NOT AND PUSH6 0x20000000001 OR SWAP1 SSTORE PUSH1 0x40 DUP1 MLOAD PUSH1 0x60 DUP2 ADD DUP3 MSTORE PUSH1 0x64 DUP1 DUP3 MSTORE PUSH1 0x20 DUP3 ADD MSTORE PUSH1 0x0 SWAP2 DUP2 ADD DUP3 SWAP1 MSTORE SWAP1 PUSH2 0x6E5 PUSH2 0x1077 JUMP JUMPDEST SWAP1 POP PUSH2 0x6F5 DUP3 DUP3 PUSH1 0x1 PUSH1 0x0 PUSH2 0x11B0 JUMP JUMPDEST PUSH1 0x2 DUP5 ADD SSTORE PUSH1 0x1 PUSH1 0x1 PUSH1 0x40 SHL SUB DUP8 AND PUSH1 0x0 SWAP1 DUP2 MSTORE PUSH1 0x3 PUSH1 0x20 SWAP1 DUP2 MSTORE PUSH1 0x40 DUP1 DUP4 KECCAK256 SWAP3 SWAP1 SWAP3 SSTORE DUP5 SLOAD SWAP2 MLOAD DUP8 DUP2 MSTORE PUSH1 0x1 PUSH1 0x1 PUSH1 0xA0 SHL SUB SWAP1 SWAP3 AND SWAP2 DUP7 SWAP2 PUSH32 0xC63A891A22AC932AD47CE11DC7DB2669046AC95B4049D199495392B68F4D0114 SWAP2 ADD PUSH1 0x40 MLOAD DUP1 SWAP2 SUB SWAP1 LOG3 POP POP POP POP POP POP POP JUMP JUMPDEST PUSH1 0x0 DUP5 DUP2 MSTORE PUSH1 0x1 PUSH1 0x20 MSTORE PUSH1 0x40 SWAP1 KECCAK256 DUP1 SLOAD PUSH1 0x1 PUSH1 0x1 PUSH1 0xA0 SHL SUB AND CALLER EQ PUSH2 0x799 JUMPI PUSH1 0x40 MLOAD PUSH3 0x461BCD PUSH1 0xE5 SHL DUP2 MSTORE PUSH1 0x4 ADD PUSH2 0x492 SWAP1 PUSH2 0x2460 JUMP JUMPDEST PUSH1 0x2 PUSH1 0x3 DUP3 DUP2 ADD SLOAD PUSH1 0x1 PUSH1 0x28 SHL SWAP1 DIV PUSH1 0xFF AND SWAP1 DUP2 GT ISZERO PUSH2 0x7BB JUMPI PUSH2 0x7BB PUSH2 0x1D45 JUMP JUMPDEST EQ PUSH2 0x7D8 JUMPI PUSH1 0x40 MLOAD PUSH3 0x461BCD PUSH1 0xE5 SHL DUP2 MSTORE PUSH1 0x4 ADD PUSH2 0x492 SWAP1 PUSH2 0x2487 JUMP JUMPDEST PUSH1 0x3 DUP2 ADD SLOAD PUSH1 0x0 SWAP1 PUSH2 0x7FD SWAP1 DUP7 SWAP1 DUP7 SWAP1 PUSH1 0xFF DUP2 AND SWAP1 PUSH2 0x100 SWAP1 DIV PUSH4 0xFFFFFFFF AND PUSH2 0x11B0 JUMP JUMPDEST SWAP1 POP DUP2 PUSH1 0x2 ADD SLOAD DUP2 EQ PUSH2 0x85D JUMPI PUSH1 0x40 MLOAD PUSH3 0x461BCD PUSH1 0xE5 SHL DUP2 MSTORE PUSH1 0x20 PUSH1 0x4 DUP3 ADD MSTORE PUSH1 0x22 PUSH1 0x24 DUP3 ADD MSTORE PUSH32 0x5374617465206D69736D61746368202D20696E76616C6964207072652D737461 PUSH1 0x44 DUP3 ADD MSTORE PUSH2 0x7465 PUSH1 0xF0 SHL PUSH1 0x64 DUP3 ADD MSTORE PUSH1 0x84 ADD PUSH2 0x492 JUMP JUMPDEST PUSH1 0x1 DUP3 ADD SLOAD PUSH1 0x3 DUP4 ADD SLOAD PUSH1 0x0 SWAP2 DUP3 SWAP2 DUP3 SWAP2 DUP3 SWAP2 PUSH2 0x890 SWAP2 SWAP1 DUP12 SWAP1 DUP12 SWAP1 PUSH1 0xFF DUP2 AND SWAP1 DUP13 SWAP1 PUSH2 0x100 SWAP1 DIV PUSH4 0xFFFFFFFF AND PUSH2 0x1307 JUMP JUMPDEST PUSH1 0x3 DUP11 ADD DUP1 SLOAD SWAP5 SWAP9 POP SWAP3 SWAP7 POP SWAP1 SWAP5 POP SWAP3 POP PUSH1 0xFF SWAP1 SWAP2 AND SWAP1 PUSH1 0x0 PUSH2 0x8B2 DUP4 PUSH2 0x24F8 JUMP JUMPDEST DUP3 SLOAD PUSH1 0xFF SWAP2 DUP3 AND PUSH2 0x100 SWAP4 DUP5 EXP SWAP1 DUP2 MUL SWAP1 DUP4 MUL NOT SWAP1 SWAP2 AND OR SWAP1 SWAP3 SSTORE PUSH1 0x3 DUP10 ADD DUP1 SLOAD PUSH4 0xFFFFFFFF DUP7 AND SWAP1 SWAP3 MUL PUSH5 0xFFFFFFFF00 NOT DUP4 AND DUP2 OR SWAP1 SWAP2 SSTORE PUSH2 0x900 SWAP4 POP DUP8 SWAP3 DUP8 SWAP3 SWAP2 DUP2 AND SWAP2 AND OR DUP5 PUSH2 0x11B0 JUMP JUMPDEST PUSH1 0x2 DUP8 ADD SSTORE PUSH1 0x3 DUP7 ADD SLOAD DUP11 SWAP1 PUSH32 0x692853B8D20BF806EADD662C4F5FD6F7C418DB70A96783D8418D00BE1EA64B7 SWAP1 PUSH2 0x93D SWAP1 PUSH1 0x1 SWAP1 PUSH1 0xFF AND PUSH2 0x2517 JUMP JUMPDEST DUP9 PUSH1 0x2 ADD SLOAD DUP6 PUSH1 0x40 MLOAD PUSH2 0x952 SWAP4 SWAP3 SWAP2 SWAP1 PUSH2 0x2530 JUMP JUMPDEST PUSH1 0x40 MLOAD DUP1 SWAP2 SUB SWAP1 LOG2 PUSH1 0x0 DUP3 PUSH1 0x2 DUP2 GT ISZERO PUSH2 0x96E JUMPI PUSH2 0x96E PUSH2 0x1D45 JUMP JUMPDEST EQ PUSH2 0xA10 JUMPI PUSH1 0x3 DUP7 ADD DUP1 SLOAD PUSH6 0x30000000000 PUSH6 0xFF0000000000 NOT DUP3 AND DUP2 OR DUP4 SSTORE DUP5 SWAP3 SWAP2 PUSH7 0xFFFF0000000000 NOT AND OR PUSH1 0x1 PUSH1 0x30 SHL DUP4 PUSH1 0x2 DUP2 GT ISZERO PUSH2 0x9B3 JUMPI PUSH2 0x9B3 PUSH2 0x1D45 JUMP JUMPDEST MUL OR SWAP1 SSTORE POP PUSH1 0x3 DUP7 ADD SLOAD CALLER SWAP1 DUP12 SWAP1 PUSH32 0xDC50DB4EB04A753D55F5CDA3FE208EE93B06B98AA0C4769A969824FDB47C46EC SWAP1 DUP6 SWAP1 PUSH2 0x9F4 SWAP1 PUSH1 0x1 SWAP1 PUSH1 0xFF AND PUSH2 0x2517 JUMP JUMPDEST PUSH1 0x40 MLOAD PUSH2 0xA07 SWAP3 SWAP2 SWAP1 DUP8 SWAP1 PUSH1 0x0 SWAP1 PUSH2 0x24B0 JUMP JUMPDEST PUSH1 0x40 MLOAD DUP1 SWAP2 SUB SWAP1 LOG3 JUMPDEST POP POP POP POP POP POP POP POP POP POP JUMP JUMPDEST PUSH1 0x60 PUSH2 0xA28 DUP4 DUP4 PUSH2 0x16C5 JUMP JUMPDEST SWAP1 POP JUMPDEST SWAP3 SWAP2 POP POP JUMP JUMPDEST PUSH1 0x0 DUP2 DUP2 MSTORE PUSH1 0x1 PUSH1 0x20 MSTORE PUSH1 0x40 SWAP1 KECCAK256 DUP1 SLOAD PUSH1 0x1 PUSH1 0x1 PUSH1 0xA0 SHL SUB AND CALLER EQ PUSH2 0xA68 JUMPI PUSH1 0x40 MLOAD PUSH3 0x461BCD PUSH1 0xE5 SHL DUP2 MSTORE PUSH1 0x4 ADD PUSH2 0x492 SWAP1 PUSH2 0x2460 JUMP JUMPDEST PUSH1 0x2 PUSH1 0x3 DUP3 DUP2 ADD SLOAD PUSH1 0x1 PUSH1 0x28 SHL SWAP1 DIV PUSH1 0xFF AND SWAP1 DUP2 GT ISZERO PUSH2 0xA8A JUMPI PUSH2 0xA8A PUSH2 0x1D45 JUMP JUMPDEST EQ DUP1 PUSH2 0xAB5 JUMPI POP PUSH1 0x1 PUSH1 0x3 DUP3 DUP2 ADD SLOAD PUSH1 0x1 PUSH1 0x28 SHL SWAP1 DIV PUSH1 0xFF AND SWAP1 DUP2 GT ISZERO PUSH2 0xAB3 JUMPI PUSH2 0xAB3 PUSH2 0x1D45 JUMP JUMPDEST EQ JUMPDEST PUSH2 0xAD1 JUMPI PUSH1 0x40 MLOAD PUSH3 0x461BCD PUSH1 0xE5 SHL DUP2 MSTORE PUSH1 0x4 ADD PUSH2 0x492 SWAP1 PUSH2 0x2487 JUMP JUMPDEST PUSH1 0x3 DUP2 ADD DUP1 SLOAD PUSH7 0xFFFF0000000000 NOT DUP2 AND PUSH7 0x2030000000000 OR SWAP2 DUP3 SWAP1 SSTORE PUSH1 0x40 MLOAD CALLER SWAP3 DUP6 SWAP3 PUSH32 0xDC50DB4EB04A753D55F5CDA3FE208EE93B06B98AA0C4769A969824FDB47C46EC SWAP3 PUSH2 0xB38 SWAP3 PUSH1 0x2 SWAP3 PUSH1 0xFF AND SWAP2 PUSH2 0x100 SWAP1 SWAP2 DIV PUSH4 0xFFFFFFFF AND SWAP1 PUSH1 0x0 SWAP1 PUSH2 0x24B0 JUMP JUMPDEST PUSH1 0x40 MLOAD DUP1 SWAP2 SUB SWAP1 LOG3 POP POP JUMP JUMPDEST CALLER PUSH1 0x0 SWAP1 DUP2 MSTORE PUSH1 0x2 PUSH1 0x20 MSTORE PUSH1 0x40 DUP2 KECCAK256 SLOAD DUP2 SWAP1 DUP1 ISZERO PUSH2 0xC08 JUMPI PUSH1 0x0 DUP2 DUP2 MSTORE PUSH1 0x1 PUSH1 0x20 MSTORE PUSH1 0x40 SWAP1 KECCAK256 PUSH1 0x3 SWAP1 DUP2 ADD SLOAD PUSH1 0x1 PUSH1 0x28 SHL SWAP1 DIV PUSH1 0xFF AND SWAP1 DUP2 PUSH1 0x3 DUP2 GT ISZERO PUSH2 0xB8D JUMPI PUSH2 0xB8D PUSH2 0x1D45 JUMP JUMPDEST EQ DUP1 PUSH2 0xBAA JUMPI POP PUSH1 0x0 DUP2 PUSH1 0x3 DUP2 GT ISZERO PUSH2 0xBA8 JUMPI PUSH2 0xBA8 PUSH2 0x1D45 JUMP JUMPDEST EQ JUMPDEST PUSH2 0xC06 JUMPI PUSH1 0x40 MLOAD PUSH3 0x461BCD PUSH1 0xE5 SHL DUP2 MSTORE PUSH1 0x20 PUSH1 0x4 DUP3 ADD MSTORE PUSH1 0x27 PUSH1 0x24 DUP3 ADD MSTORE PUSH32 0x436F6D706C657465206F7220666F7266656974206578697374696E672067616D PUSH1 0x44 DUP3 ADD MSTORE PUSH7 0x1948199A5C9CDD PUSH1 0xCA SHL PUSH1 0x64 DUP3 ADD MSTORE PUSH1 0x84 ADD PUSH2 0x492 JUMP JUMPDEST POP JUMPDEST PUSH1 0x0 PUSH20 0x825C0390F379C631F3CF11A82A37D20BDDF93C07 PUSH1 0x1 PUSH1 0x1 PUSH1 0xA0 SHL SUB AND PUSH4 0x8204B67A PUSH1 0x40 MLOAD DUP2 PUSH4 0xFFFFFFFF AND PUSH1 0xE0 SHL DUP2 MSTORE PUSH1 0x4 ADD PUSH1 0x20 PUSH1 0x40 MLOAD DUP1 DUP4 SUB DUP2 DUP7 GAS STATICCALL ISZERO DUP1 ISZERO PUSH2 0xC5C JUMPI RETURNDATASIZE PUSH1 0x0 DUP1 RETURNDATACOPY RETURNDATASIZE PUSH1 0x0 REVERT JUMPDEST POP POP POP POP PUSH1 0x40 MLOAD RETURNDATASIZE PUSH1 0x1F NOT PUSH1 0x1F DUP3 ADD AND DUP3 ADD DUP1 PUSH1 0x40 MSTORE POP DUP2 ADD SWAP1 PUSH2 0xC80 SWAP2 SWAP1 PUSH2 0x254E JUMP JUMPDEST SWAP1 POP DUP1 PUSH1 0x1 PUSH1 0x1 PUSH1 0x80 SHL SUB AND CALLVALUE LT ISZERO PUSH2 0xCDB JUMPI PUSH1 0x40 MLOAD PUSH3 0x461BCD PUSH1 0xE5 SHL DUP2 MSTORE PUSH1 0x20 PUSH1 0x4 DUP3 ADD MSTORE PUSH1 0x18 PUSH1 0x24 DUP3 ADD MSTORE PUSH32 0x496E73756666696369656E742066656520666F72205652460000000000000000 PUSH1 0x44 DUP3 ADD MSTORE PUSH1 0x64 ADD PUSH2 0x492 JUMP JUMPDEST PUSH1 0x0 DUP1 SLOAD SWAP1 DUP1 PUSH2 0xCEA DUP4 PUSH2 0x2577 JUMP JUMPDEST SWAP1 SWAP2 SSTORE POP POP PUSH1 0x0 DUP1 SLOAD PUSH1 0x40 DUP1 MLOAD PUSH1 0xE0 DUP2 ADD DUP3 MSTORE CALLER DUP2 MSTORE PUSH1 0x20 DUP1 DUP3 ADD DUP6 DUP2 MSTORE DUP3 DUP5 ADD DUP7 DUP2 MSTORE PUSH1 0x60 DUP5 ADD DUP8 DUP2 MSTORE PUSH1 0x80 DUP6 ADD DUP9 DUP2 MSTORE PUSH1 0x1 PUSH1 0xA0 DUP8 ADD DUP2 DUP2 MSTORE PUSH1 0xC0 DUP9 ADD DUP12 SWAP1 MSTORE DUP10 DUP12 MSTORE SWAP6 DUP2 SWAP1 MSTORE SWAP7 SWAP1 SWAP9 KECCAK256 DUP6 MLOAD DUP2 SLOAD PUSH1 0x1 PUSH1 0x1 PUSH1 0xA0 SHL SUB SWAP1 SWAP2 AND PUSH1 0x1 PUSH1 0x1 PUSH1 0xA0 SHL SUB NOT SWAP1 SWAP2 AND OR DUP2 SSTORE SWAP3 MLOAD SWAP6 DUP4 ADD SWAP6 SWAP1 SWAP6 SSTORE MLOAD PUSH1 0x2 DUP3 ADD SSTORE SWAP3 MLOAD PUSH1 0x3 DUP1 DUP6 ADD DUP1 SLOAD SWAP8 MLOAD PUSH4 0xFFFFFFFF AND PUSH2 0x100 MUL PUSH5 0xFFFFFFFFFF NOT SWAP1 SWAP9 AND PUSH1 0xFF SWAP1 SWAP4 AND SWAP3 SWAP1 SWAP3 OR SWAP7 SWAP1 SWAP7 OR DUP1 DUP3 SSTORE SWAP2 MLOAD SWAP5 SWAP10 POP SWAP2 SWAP5 SWAP3 SWAP4 SWAP3 PUSH6 0xFF0000000000 NOT SWAP1 SWAP2 AND SWAP1 PUSH1 0x1 PUSH1 0x28 SHL SWAP1 DUP5 SWAP1 DUP2 GT ISZERO PUSH2 0xDC0 JUMPI PUSH2 0xDC0 PUSH2 0x1D45 JUMP JUMPDEST MUL OR SWAP1 SSTORE POP PUSH1 0xC0 DUP3 ADD MLOAD PUSH1 0x3 DUP3 ADD DUP1 SLOAD PUSH7 0xFF000000000000 NOT AND PUSH1 0x1 PUSH1 0x30 SHL DUP4 PUSH1 0x2 DUP2 GT ISZERO PUSH2 0xDF1 JUMPI PUSH2 0xDF1 PUSH2 0x1D45 JUMP JUMPDEST MUL OR SWAP1 SSTORE POP POP CALLER PUSH1 0x0 SWAP1 DUP2 MSTORE PUSH1 0x2 PUSH1 0x20 SWAP1 DUP2 MSTORE PUSH1 0x40 SWAP2 DUP3 SWAP1 KECCAK256 DUP8 SWAP1 SSTORE DUP2 MLOAD PUSH4 0x7B43155D PUSH1 0xE0 SHL DUP2 MSTORE SWAP2 MLOAD PUSH20 0x825C0390F379C631F3CF11A82A37D20BDDF93C07 SWAP4 POP PUSH4 0x7B43155D SWAP3 PUSH1 0x1 PUSH1 0x1 PUSH1 0x80 SHL SUB DUP7 AND SWAP3 PUSH1 0x4 DUP1 DUP4 ADD SWAP4 SWAP2 SWAP3 DUP3 SWAP1 SUB ADD DUP2 DUP6 DUP9 GAS CALL ISZERO DUP1 ISZERO PUSH2 0xE65 JUMPI RETURNDATASIZE PUSH1 0x0 DUP1 RETURNDATACOPY RETURNDATASIZE PUSH1 0x0 REVERT JUMPDEST POP POP POP POP POP PUSH1 0x40 MLOAD RETURNDATASIZE PUSH1 0x1F NOT PUSH1 0x1F DUP3 ADD AND DUP3 ADD DUP1 PUSH1 0x40 MSTORE POP DUP2 ADD SWAP1 PUSH2 0xE8A SWAP2 SWAP1 PUSH2 0x2590 JUMP JUMPDEST PUSH1 0x1 PUSH1 0x1 PUSH1 0x40 SHL SUB DUP2 AND PUSH1 0x0 DUP2 DUP2 MSTORE PUSH1 0x3 PUSH1 0x20 SWAP1 DUP2 MSTORE PUSH1 0x40 SWAP2 DUP3 SWAP1 KECCAK256 DUP9 SWAP1 SSTORE SWAP1 MLOAD SWAP2 DUP3 MSTORE SWAP2 SWAP5 POP CALLER SWAP2 DUP7 SWAP2 PUSH32 0xB420CE9D7328F401E14F0E6D53AC032B75A72C843DFC5B570855CA7AC838B63A SWAP2 ADD PUSH1 0x40 MLOAD DUP1 SWAP2 SUB SWAP1 LOG3 DUP1 PUSH1 0x1 PUSH1 0x1 PUSH1 0x80 SHL SUB AND CALLVALUE GT ISZERO PUSH2 0xF32 JUMPI CALLER PUSH2 0x8FC PUSH2 0xF08 PUSH1 0x1 PUSH1 0x1 PUSH1 0x80 SHL SUB DUP5 AND CALLVALUE PUSH2 0x25AD JUMP JUMPDEST PUSH1 0x40 MLOAD DUP2 ISZERO SWAP1 SWAP3 MUL SWAP2 PUSH1 0x0 DUP2 DUP2 DUP2 DUP6 DUP9 DUP9 CALL SWAP4 POP POP POP POP ISZERO DUP1 ISZERO PUSH2 0xF30 JUMPI RETURNDATASIZE PUSH1 0x0 DUP1 RETURNDATACOPY RETURNDATASIZE PUSH1 0x0 REVERT JUMPDEST POP JUMPDEST POP POP SWAP1 SWAP2 JUMP JUMPDEST PUSH1 0x40 DUP1 MLOAD PUSH1 0x60 DUP2 ADD DUP3 MSTORE PUSH1 0x0 DUP1 DUP3 MSTORE PUSH1 0x20 DUP3 ADD DUP2 SWAP1 MSTORE SWAP2 DUP2 ADD SWAP2 SWAP1 SWAP2 MSTORE PUSH1 0x60 PUSH1 0x0 DUP1 PUSH2 0xF68 DUP11 DUP11 DUP11 DUP11 DUP11 DUP11 PUSH2 0x1307 JUMP JUMPDEST SWAP3 SWAP14 SWAP2 SWAP13 POP SWAP11 POP SWAP1 SWAP9 POP SWAP7 POP POP POP POP POP POP POP JUMP JUMPDEST PUSH1 0x0 PUSH20 0x825C0390F379C631F3CF11A82A37D20BDDF93C07 PUSH1 0x1 PUSH1 0x1 PUSH1 0xA0 SHL SUB AND PUSH4 0x8204B67A PUSH1 0x40 MLOAD DUP2 PUSH4 0xFFFFFFFF AND PUSH1 0xE0 SHL DUP2 MSTORE PUSH1 0x4 ADD PUSH1 0x20 PUSH1 0x40 MLOAD DUP1 DUP4 SUB DUP2 DUP7 GAS STATICCALL ISZERO DUP1 ISZERO PUSH2 0xFD0 JUMPI RETURNDATASIZE PUSH1 0x0 DUP1 RETURNDATACOPY RETURNDATASIZE PUSH1 0x0 REVERT JUMPDEST POP POP POP POP PUSH1 0x40 MLOAD RETURNDATASIZE PUSH1 0x1F NOT PUSH1 0x1F DUP3 ADD AND DUP3 ADD DUP1 PUSH1 0x40 MSTORE POP DUP2 ADD SWAP1 PUSH2 0xFF4 SWAP2 SWAP1 PUSH2 0x254E JUMP JUMPDEST SWAP1 POP SWAP1 JUMP JUMPDEST PUSH1 0x1 PUSH1 0x1 PUSH1 0xA0 SHL SUB DUP2 AND PUSH1 0x0 SWAP1 DUP2 MSTORE PUSH1 0x2 PUSH1 0x20 MSTORE PUSH1 0x40 DUP2 KECCAK256 SLOAD DUP1 DUP3 SUB PUSH2 0x1022 JUMPI POP PUSH1 0x0 SWAP3 SWAP2 POP POP JUMP JUMPDEST PUSH1 0x0 DUP2 DUP2 MSTORE PUSH1 0x1 PUSH1 0x20 MSTORE PUSH1 0x40 SWAP1 KECCAK256 PUSH1 0x3 ADD SLOAD PUSH1 0x1 PUSH1 0x28 SHL SWAP1 DIV PUSH1 0xFF AND PUSH1 0x2 DUP2 PUSH1 0x3 DUP2 GT ISZERO PUSH2 0x1052 JUMPI PUSH2 0x1052 PUSH2 0x1D45 JUMP JUMPDEST EQ DUP1 PUSH2 0x106F JUMPI POP PUSH1 0x1 DUP2 PUSH1 0x3 DUP2 GT ISZERO PUSH2 0x106D JUMPI PUSH2 0x106D PUSH2 0x1D45 JUMP JUMPDEST EQ JUMPDEST SWAP5 SWAP4 POP POP POP POP JUMP JUMPDEST PUSH1 0x40 DUP1 MLOAD PUSH1 0x3 DUP1 DUP3 MSTORE PUSH1 0x80 DUP3 ADD SWAP1 SWAP3 MSTORE PUSH1 0x60 SWAP2 PUSH1 0x0 SWAP2 SWAP1 DUP2 PUSH1 0x20 ADD JUMPDEST PUSH2 0x109B PUSH2 0x1CF7 JUMP JUMPDEST DUP2 MSTORE PUSH1 0x20 ADD SWAP1 PUSH1 0x1 SWAP1 SUB SWAP1 DUP2 PUSH2 0x1093 JUMPI POP POP PUSH1 0x40 DUP1 MLOAD PUSH1 0xC0 DUP2 ADD DUP3 MSTORE PUSH1 0x0 DUP1 DUP3 MSTORE PUSH1 0x14 PUSH1 0x20 DUP4 ADD DUP2 SWAP1 MSTORE SWAP3 DUP3 ADD SWAP3 SWAP1 SWAP3 MSTORE PUSH1 0x5 PUSH1 0x60 DUP3 ADD MSTORE PUSH1 0x1 PUSH1 0x80 DUP3 ADD MSTORE PUSH1 0xA0 DUP2 ADD DUP3 SWAP1 MSTORE DUP3 MLOAD SWAP3 SWAP4 POP SWAP2 DUP4 SWAP2 SWAP1 PUSH2 0x10F6 JUMPI PUSH2 0x10F6 PUSH2 0x25C0 JUMP JUMPDEST PUSH1 0x20 SWAP1 DUP2 MUL SWAP2 SWAP1 SWAP2 ADD DUP2 ADD SWAP2 SWAP1 SWAP2 MSTORE PUSH1 0x40 DUP1 MLOAD PUSH1 0xC0 DUP2 ADD DUP3 MSTORE PUSH1 0x1 DUP1 DUP3 MSTORE PUSH1 0xF SWAP4 DUP3 ADD DUP5 SWAP1 MSTORE SWAP2 DUP2 ADD SWAP3 SWAP1 SWAP3 MSTORE PUSH1 0x3 PUSH1 0x60 DUP4 ADD MSTORE PUSH1 0x80 DUP3 ADD DUP2 SWAP1 MSTORE PUSH1 0x0 PUSH1 0xA0 DUP4 ADD MSTORE DUP3 MLOAD DUP4 SWAP2 SWAP1 DUP2 LT PUSH2 0x114B JUMPI PUSH2 0x114B PUSH2 0x25C0 JUMP JUMPDEST PUSH1 0x20 SWAP1 DUP2 MUL SWAP2 SWAP1 SWAP2 ADD DUP2 ADD SWAP2 SWAP1 SWAP2 MSTORE PUSH1 0x40 DUP1 MLOAD PUSH1 0xC0 DUP2 ADD DUP3 MSTORE PUSH1 0x2 DUP1 DUP3 MSTORE PUSH1 0x1E SWAP4 DUP3 ADD DUP5 SWAP1 MSTORE SWAP2 DUP2 ADD SWAP3 SWAP1 SWAP3 MSTORE PUSH1 0x8 PUSH1 0x60 DUP4 ADD MSTORE PUSH1 0x0 PUSH1 0x80 DUP4 ADD DUP2 SWAP1 MSTORE PUSH1 0xA0 DUP4 ADD MSTORE DUP3 MLOAD DUP4 SWAP2 SWAP1 DUP2 LT PUSH2 0x11A0 JUMPI PUSH2 0x11A0 PUSH2 0x25C0 JUMP JUMPDEST PUSH1 0x20 SWAP1 DUP2 MUL SWAP2 SWAP1 SWAP2 ADD ADD MSTORE SWAP2 SWAP1 POP JUMP JUMPDEST PUSH1 0x0 PUSH1 0x60 PUSH1 0x0 JUMPDEST DUP6 MLOAD DUP2 PUSH1 0xFF AND LT ISZERO PUSH2 0x12C4 JUMPI DUP2 DUP7 DUP3 PUSH1 0xFF AND DUP2 MLOAD DUP2 LT PUSH2 0x11D9 JUMPI PUSH2 0x11D9 PUSH2 0x25C0 JUMP JUMPDEST PUSH1 0x20 MUL PUSH1 0x20 ADD ADD MLOAD PUSH1 0x0 ADD MLOAD DUP8 DUP4 PUSH1 0xFF AND DUP2 MLOAD DUP2 LT PUSH2 0x11FA JUMPI PUSH2 0x11FA PUSH2 0x25C0 JUMP JUMPDEST PUSH1 0x20 MUL PUSH1 0x20 ADD ADD MLOAD PUSH1 0x20 ADD MLOAD DUP9 DUP5 PUSH1 0xFF AND DUP2 MLOAD DUP2 LT PUSH2 0x121B JUMPI PUSH2 0x121B PUSH2 0x25C0 JUMP JUMPDEST PUSH1 0x20 MUL PUSH1 0x20 ADD ADD MLOAD PUSH1 0x40 ADD MLOAD DUP10 DUP6 PUSH1 0xFF AND DUP2 MLOAD DUP2 LT PUSH2 0x123C JUMPI PUSH2 0x123C PUSH2 0x25C0 JUMP JUMPDEST PUSH1 0x20 MUL PUSH1 0x20 ADD ADD MLOAD PUSH1 0x60 ADD MLOAD DUP11 DUP7 PUSH1 0xFF AND DUP2 MLOAD DUP2 LT PUSH2 0x125D JUMPI PUSH2 0x125D PUSH2 0x25C0 JUMP JUMPDEST PUSH1 0x20 MUL PUSH1 0x20 ADD ADD MLOAD PUSH1 0x80 ADD MLOAD DUP12 DUP8 PUSH1 0xFF AND DUP2 MLOAD DUP2 LT PUSH2 0x127E JUMPI PUSH2 0x127E PUSH2 0x25C0 JUMP JUMPDEST PUSH1 0x20 MUL PUSH1 0x20 ADD ADD MLOAD PUSH1 0xA0 ADD MLOAD PUSH1 0x40 MLOAD PUSH1 0x20 ADD PUSH2 0x12A0 SWAP8 SWAP7 SWAP6 SWAP5 SWAP4 SWAP3 SWAP2 SWAP1 PUSH2 0x2606 JUMP JUMPDEST PUSH1 0x40 MLOAD PUSH1 0x20 DUP2 DUP4 SUB SUB DUP2 MSTORE SWAP1 PUSH1 0x40 MSTORE SWAP2 POP DUP1 DUP1 PUSH2 0x12BC SWAP1 PUSH2 0x24F8 JUMP JUMPDEST SWAP2 POP POP PUSH2 0x11B7 JUMP JUMPDEST POP DUP6 MLOAD PUSH1 0x20 DUP1 DUP9 ADD MLOAD PUSH1 0x40 DUP1 DUP11 ADD MLOAD SWAP1 MLOAD PUSH2 0x12E6 SWAP5 SWAP4 DUP10 SWAP2 DUP10 SWAP2 DUP9 SWAP2 ADD PUSH2 0x266F JUMP JUMPDEST PUSH1 0x40 MLOAD PUSH1 0x20 DUP2 DUP4 SUB SUB DUP2 MSTORE SWAP1 PUSH1 0x40 MSTORE DUP1 MLOAD SWAP1 PUSH1 0x20 ADD KECCAK256 SWAP2 POP POP SWAP5 SWAP4 POP POP POP POP JUMP JUMPDEST PUSH1 0x40 DUP1 MLOAD PUSH1 0x60 DUP2 ADD DUP3 MSTORE PUSH1 0x0 DUP1 DUP3 MSTORE PUSH1 0x20 DUP3 ADD DUP2 SWAP1 MSTORE SWAP2 DUP2 ADD SWAP2 SWAP1 SWAP2 MSTORE PUSH1 0x60 PUSH1 0x0 DUP1 PUSH1 0x0 PUSH2 0x1335 DUP12 DUP10 PUSH2 0x16C5 JUMP JUMPDEST SWAP1 POP DUP1 MLOAD DUP8 MLOAD EQ PUSH2 0x1388 JUMPI PUSH1 0x40 MLOAD PUSH3 0x461BCD PUSH1 0xE5 SHL DUP2 MSTORE PUSH1 0x20 PUSH1 0x4 DUP3 ADD MSTORE PUSH1 0x18 PUSH1 0x24 DUP3 ADD MSTORE PUSH32 0x496E76616C69642061737369676E6D656E7420636F756E740000000000000000 PUSH1 0x44 DUP3 ADD MSTORE PUSH1 0x64 ADD PUSH2 0x492 JUMP JUMPDEST DUP10 SWAP5 POP DUP6 SWAP2 POP DUP9 MLOAD PUSH1 0x1 PUSH1 0x1 PUSH1 0x40 SHL SUB DUP2 GT ISZERO PUSH2 0x13A7 JUMPI PUSH2 0x13A7 PUSH2 0x1EA7 JUMP JUMPDEST PUSH1 0x40 MLOAD SWAP1 DUP1 DUP3 MSTORE DUP1 PUSH1 0x20 MUL PUSH1 0x20 ADD DUP3 ADD PUSH1 0x40 MSTORE DUP1 ISZERO PUSH2 0x13E0 JUMPI DUP2 PUSH1 0x20 ADD JUMPDEST PUSH2 0x13CD PUSH2 0x1CF7 JUMP JUMPDEST DUP2 MSTORE PUSH1 0x20 ADD SWAP1 PUSH1 0x1 SWAP1 SUB SWAP1 DUP2 PUSH2 0x13C5 JUMPI SWAP1 POP JUMPDEST POP SWAP4 POP PUSH1 0x0 JUMPDEST DUP10 MLOAD DUP2 PUSH1 0xFF AND LT ISZERO PUSH2 0x1442 JUMPI DUP10 DUP2 PUSH1 0xFF AND DUP2 MLOAD DUP2 LT PUSH2 0x1407 JUMPI PUSH2 0x1407 PUSH2 0x25C0 JUMP JUMPDEST PUSH1 0x20 MUL PUSH1 0x20 ADD ADD MLOAD DUP6 DUP3 PUSH1 0xFF AND DUP2 MLOAD DUP2 LT PUSH2 0x1424 JUMPI PUSH2 0x1424 PUSH2 0x25C0 JUMP JUMPDEST PUSH1 0x20 MUL PUSH1 0x20 ADD ADD DUP2 SWAP1 MSTORE POP DUP1 DUP1 PUSH2 0x143A SWAP1 PUSH2 0x24F8 JUMP JUMPDEST SWAP2 POP POP PUSH2 0x13E6 JUMP JUMPDEST POP PUSH1 0x0 JUMPDEST DUP8 MLOAD DUP2 PUSH1 0xFF AND LT ISZERO PUSH2 0x159C JUMPI PUSH1 0x0 DUP3 DUP10 DUP4 PUSH1 0xFF AND DUP2 MLOAD DUP2 LT PUSH2 0x146A JUMPI PUSH2 0x146A PUSH2 0x25C0 JUMP JUMPDEST PUSH1 0x20 MUL PUSH1 0x20 ADD ADD MLOAD PUSH1 0x0 ADD MLOAD PUSH1 0xFF AND DUP2 MLOAD DUP2 LT PUSH2 0x1489 JUMPI PUSH2 0x1489 PUSH2 0x25C0 JUMP JUMPDEST PUSH1 0x20 MUL PUSH1 0x20 ADD ADD MLOAD SWAP1 POP PUSH1 0x0 DUP10 DUP4 PUSH1 0xFF AND DUP2 MLOAD DUP2 LT PUSH2 0x14AA JUMPI PUSH2 0x14AA PUSH2 0x25C0 JUMP JUMPDEST PUSH1 0x20 MUL PUSH1 0x20 ADD ADD MLOAD PUSH1 0x20 ADD MLOAD SWAP1 POP DUP1 PUSH1 0xFF AND PUSH1 0x0 SUB PUSH2 0x14CA JUMPI POP POP PUSH2 0x158A JUMP JUMPDEST DUP1 PUSH1 0xFF AND PUSH1 0x1 SUB PUSH2 0x14E6 JUMPI PUSH2 0x14DF DUP9 DUP4 PUSH2 0x17FA JUMP JUMPDEST SWAP8 POP PUSH2 0x1587 JUMP JUMPDEST PUSH1 0x0 PUSH2 0x14F3 PUSH1 0x2 DUP4 PUSH2 0x2517 JUMP JUMPDEST SWAP1 POP DUP8 MLOAD DUP2 PUSH1 0xFF AND LT PUSH2 0x153F JUMPI PUSH1 0x40 MLOAD PUSH3 0x461BCD PUSH1 0xE5 SHL DUP2 MSTORE PUSH1 0x20 PUSH1 0x4 DUP3 ADD MSTORE PUSH1 0x14 PUSH1 0x24 DUP3 ADD MSTORE PUSH20 0x125B9D985B1A5908195B995B5E481D185C99D95D PUSH1 0x62 SHL PUSH1 0x44 DUP3 ADD MSTORE PUSH1 0x64 ADD PUSH2 0x492 JUMP JUMPDEST PUSH2 0x1565 DUP9 DUP3 PUSH1 0xFF AND DUP2 MLOAD DUP2 LT PUSH2 0x1557 JUMPI PUSH2 0x1557 PUSH2 0x25C0 JUMP JUMPDEST PUSH1 0x20 MUL PUSH1 0x20 ADD ADD MLOAD DUP5 PUSH2 0x18BC JUMP JUMPDEST DUP9 DUP3 PUSH1 0xFF AND DUP2 MLOAD DUP2 LT PUSH2 0x157A JUMPI PUSH2 0x157A PUSH2 0x25C0 JUMP JUMPDEST PUSH1 0x20 MUL PUSH1 0x20 ADD ADD DUP2 SWAP1 MSTORE POP POP JUMPDEST POP POP JUMPDEST DUP1 PUSH2 0x1594 DUP2 PUSH2 0x24F8 JUMP JUMPDEST SWAP2 POP POP PUSH2 0x1446 JUMP JUMPDEST POP PUSH1 0x0 JUMPDEST DUP5 MLOAD DUP2 PUSH1 0xFF AND LT ISZERO PUSH2 0x1650 JUMPI PUSH1 0x0 DUP11 DUP3 PUSH1 0xFF AND DUP2 MLOAD DUP2 LT PUSH2 0x15C3 JUMPI PUSH2 0x15C3 PUSH2 0x25C0 JUMP JUMPDEST PUSH1 0x20 MUL PUSH1 0x20 ADD ADD MLOAD PUSH1 0x20 ADD MLOAD PUSH2 0xFFFF AND GT DUP1 ISZERO PUSH2 0x1604 JUMPI POP DUP5 DUP2 PUSH1 0xFF AND DUP2 MLOAD DUP2 LT PUSH2 0x15F0 JUMPI PUSH2 0x15F0 PUSH2 0x25C0 JUMP JUMPDEST PUSH1 0x20 MUL PUSH1 0x20 ADD ADD MLOAD PUSH1 0x20 ADD MLOAD PUSH2 0xFFFF AND PUSH1 0x0 EQ JUMPDEST ISZERO PUSH2 0x163E JUMPI DUP5 DUP2 PUSH1 0xFF AND DUP2 MLOAD DUP2 LT PUSH2 0x161E JUMPI PUSH2 0x161E PUSH2 0x25C0 JUMP JUMPDEST PUSH1 0x20 MUL PUSH1 0x20 ADD ADD MLOAD PUSH1 0xA0 ADD MLOAD ISZERO PUSH2 0x163E JUMPI PUSH2 0x163B PUSH2 0x3E8 DUP5 PUSH2 0x26CB JUMP JUMPDEST SWAP3 POP JUMPDEST DUP1 PUSH2 0x1648 DUP2 PUSH2 0x24F8 JUMP JUMPDEST SWAP2 POP POP PUSH2 0x15A0 JUMP JUMPDEST POP PUSH2 0x165B DUP6 DUP6 PUSH2 0x1980 JUMP JUMPDEST SWAP3 POP PUSH1 0x0 DUP4 PUSH1 0x2 DUP2 GT ISZERO PUSH2 0x1671 JUMPI PUSH2 0x1671 PUSH2 0x1D45 JUMP JUMPDEST SUB PUSH2 0x168F JUMPI PUSH2 0x1680 DUP6 DUP6 PUSH2 0x1A0B JUMP JUMPDEST SWAP5 POP PUSH2 0x168C DUP6 DUP6 PUSH2 0x1980 JUMP JUMPDEST SWAP3 POP JUMPDEST PUSH1 0x1 DUP4 PUSH1 0x2 DUP2 GT ISZERO PUSH2 0x16A3 JUMPI PUSH2 0x16A3 PUSH2 0x1D45 JUMP JUMPDEST SUB PUSH2 0x16B7 JUMPI PUSH2 0x16B4 PUSH2 0x1F4 DUP4 PUSH2 0x26CB JUMP JUMPDEST SWAP2 POP JUMPDEST POP SWAP7 POP SWAP7 POP SWAP7 POP SWAP7 SWAP3 POP POP POP JUMP JUMPDEST PUSH1 0x60 PUSH1 0x0 PUSH2 0x16D2 DUP4 PUSH2 0x1AD5 JUMP JUMPDEST SWAP1 POP PUSH1 0x0 PUSH2 0x16E0 DUP6 DUP6 PUSH2 0x1AED JUMP JUMPDEST SWAP1 POP DUP2 PUSH1 0xFF AND PUSH1 0x1 PUSH1 0x1 PUSH1 0x40 SHL SUB DUP2 GT ISZERO PUSH2 0x16FD JUMPI PUSH2 0x16FD PUSH2 0x1EA7 JUMP JUMPDEST PUSH1 0x40 MLOAD SWAP1 DUP1 DUP3 MSTORE DUP1 PUSH1 0x20 MUL PUSH1 0x20 ADD DUP3 ADD PUSH1 0x40 MSTORE DUP1 ISZERO PUSH2 0x1748 JUMPI DUP2 PUSH1 0x20 ADD JUMPDEST PUSH1 0x40 DUP1 MLOAD PUSH1 0x60 DUP2 ADD DUP3 MSTORE PUSH1 0x0 DUP1 DUP3 MSTORE PUSH1 0x20 DUP1 DUP4 ADD DUP3 SWAP1 MSTORE SWAP3 DUP3 ADD MSTORE DUP3 MSTORE PUSH1 0x0 NOT SWAP1 SWAP3 ADD SWAP2 ADD DUP2 PUSH2 0x171B JUMPI SWAP1 POP JUMPDEST POP SWAP3 POP PUSH1 0x0 JUMPDEST DUP3 PUSH1 0xFF AND DUP2 PUSH1 0xFF AND LT ISZERO PUSH2 0x17F1 JUMPI PUSH1 0x0 DUP3 PUSH2 0x176A PUSH1 0x20 DUP5 PUSH2 0x26EF JUMP JUMPDEST PUSH1 0xFF AND PUSH1 0x20 DUP2 LT PUSH2 0x177D JUMPI PUSH2 0x177D PUSH2 0x25C0 JUMP JUMPDEST BYTE SWAP1 POP PUSH1 0x0 PUSH2 0x178B DUP3 PUSH2 0x1B43 JUMP JUMPDEST SWAP1 POP PUSH1 0x40 MLOAD DUP1 PUSH1 0x60 ADD PUSH1 0x40 MSTORE DUP1 DUP4 PUSH1 0xFF AND DUP2 MSTORE PUSH1 0x20 ADD DUP3 PUSH1 0x4 DUP2 GT ISZERO PUSH2 0x17B3 JUMPI PUSH2 0x17B3 PUSH2 0x1D45 JUMP JUMPDEST DUP2 MSTORE PUSH1 0x20 ADD PUSH2 0x17C1 DUP4 PUSH2 0x1B99 JUMP JUMPDEST PUSH1 0xFF AND DUP2 MSTORE POP DUP7 DUP5 PUSH1 0xFF AND DUP2 MLOAD DUP2 LT PUSH2 0x17DC JUMPI PUSH2 0x17DC PUSH2 0x25C0 JUMP JUMPDEST PUSH1 0x20 SWAP1 DUP2 MUL SWAP2 SWAP1 SWAP2 ADD ADD MSTORE POP POP PUSH1 0x1 ADD PUSH2 0x174E JUMP JUMPDEST POP POP POP SWAP3 SWAP2 POP POP JUMP JUMPDEST PUSH1 0x40 DUP1 MLOAD PUSH1 0x60 DUP2 ADD DUP3 MSTORE PUSH1 0x0 DUP1 DUP3 MSTORE PUSH1 0x20 DUP1 DUP4 ADD DUP3 SWAP1 MSTORE SWAP3 DUP3 ADD MSTORE SWAP1 DUP3 ADD MLOAD PUSH1 0x4 SWAP1 DUP2 DUP2 GT ISZERO PUSH2 0x182C JUMPI PUSH2 0x182C PUSH2 0x1D45 JUMP JUMPDEST SUB PUSH2 0x1877 JUMPI PUSH1 0x0 DUP3 PUSH1 0x40 ADD MLOAD PUSH1 0xFF AND DUP5 PUSH1 0x0 ADD MLOAD PUSH2 0x184A SWAP2 SWAP1 PUSH2 0x271F JUMP JUMPDEST SWAP1 POP DUP4 PUSH1 0x20 ADD MLOAD PUSH2 0xFFFF AND DUP2 PUSH2 0xFFFF AND GT PUSH2 0x1865 JUMPI DUP1 PUSH2 0x186B JUMP JUMPDEST DUP4 PUSH1 0x20 ADD MLOAD JUMPDEST PUSH2 0xFFFF AND DUP5 MSTORE POP PUSH2 0x18B5 JUMP JUMPDEST PUSH1 0x2 DUP3 PUSH1 0x20 ADD MLOAD PUSH1 0x4 DUP2 GT ISZERO PUSH2 0x188F JUMPI PUSH2 0x188F PUSH2 0x1D45 JUMP JUMPDEST SUB PUSH2 0x18B5 JUMPI DUP2 PUSH1 0x40 ADD MLOAD PUSH1 0xFF AND DUP4 PUSH1 0x40 ADD DUP2 DUP2 MLOAD PUSH2 0x18AD SWAP2 SWAP1 PUSH2 0x271F JUMP JUMPDEST PUSH2 0xFFFF AND SWAP1 MSTORE POP JUMPDEST POP SWAP1 SWAP2 SWAP1 POP JUMP JUMPDEST PUSH2 0x18C4 PUSH2 0x1CF7 JUMP JUMPDEST DUP3 PUSH1 0xA0 ADD MLOAD ISZERO PUSH2 0x18FA JUMPI PUSH1 0x3 DUP3 PUSH1 0x20 ADD MLOAD PUSH1 0x4 DUP2 GT ISZERO PUSH2 0x18E6 JUMPI PUSH2 0x18E6 PUSH2 0x1D45 JUMP JUMPDEST SUB PUSH2 0x18F3 JUMPI PUSH1 0x0 PUSH1 0x20 DUP5 ADD MSTORE JUMPDEST POP DUP2 PUSH2 0xA2B JUMP JUMPDEST PUSH1 0x1 DUP3 PUSH1 0x20 ADD MLOAD PUSH1 0x4 DUP2 GT ISZERO PUSH2 0x1912 JUMPI PUSH2 0x1912 PUSH2 0x1D45 JUMP JUMPDEST EQ DUP1 PUSH2 0x1933 JUMPI POP PUSH1 0x3 DUP3 PUSH1 0x20 ADD MLOAD PUSH1 0x4 DUP2 GT ISZERO PUSH2 0x1931 JUMPI PUSH2 0x1931 PUSH2 0x1D45 JUMP JUMPDEST EQ JUMPDEST ISZERO PUSH2 0x18B5 JUMPI DUP2 PUSH1 0x40 ADD MLOAD PUSH1 0xFF AND DUP4 PUSH1 0x20 ADD MLOAD PUSH2 0xFFFF AND GT ISZERO PUSH2 0x1974 JUMPI DUP2 PUSH1 0x40 ADD MLOAD PUSH1 0xFF AND DUP4 PUSH1 0x20 ADD DUP2 DUP2 MLOAD PUSH2 0x1968 SWAP2 SWAP1 PUSH2 0x273A JUMP JUMPDEST PUSH2 0xFFFF AND SWAP1 MSTORE POP PUSH2 0x18B5 JUMP JUMPDEST POP POP PUSH1 0x0 PUSH1 0x20 DUP3 ADD MSTORE SWAP1 JUMP JUMPDEST DUP2 MLOAD PUSH1 0x0 SWAP1 PUSH2 0xFFFF AND DUP2 SUB PUSH2 0x1997 JUMPI POP PUSH1 0x2 PUSH2 0xA2B JUMP JUMPDEST PUSH1 0x1 PUSH1 0x0 JUMPDEST DUP4 MLOAD DUP2 PUSH1 0xFF AND LT ISZERO PUSH2 0x19F0 JUMPI PUSH1 0x0 DUP5 DUP3 PUSH1 0xFF AND DUP2 MLOAD DUP2 LT PUSH2 0x19BF JUMPI PUSH2 0x19BF PUSH2 0x25C0 JUMP JUMPDEST PUSH1 0x20 MUL PUSH1 0x20 ADD ADD MLOAD PUSH1 0x20 ADD MLOAD PUSH2 0xFFFF AND GT ISZERO PUSH2 0x19DE JUMPI PUSH1 0x0 SWAP2 POP PUSH2 0x19F0 JUMP JUMPDEST DUP1 PUSH2 0x19E8 DUP2 PUSH2 0x24F8 JUMP JUMPDEST SWAP2 POP POP PUSH2 0x199C JUMP JUMPDEST POP DUP1 ISZERO PUSH2 0x1A01 JUMPI PUSH1 0x1 SWAP2 POP POP PUSH2 0xA2B JUMP JUMPDEST POP PUSH1 0x0 SWAP4 SWAP3 POP POP POP JUMP JUMPDEST PUSH1 0x40 DUP1 MLOAD PUSH1 0x60 DUP2 ADD DUP3 MSTORE PUSH1 0x0 DUP1 DUP3 MSTORE PUSH1 0x20 DUP3 ADD DUP2 SWAP1 MSTORE SWAP2 DUP2 ADD DUP3 SWAP1 MSTORE SWAP1 JUMPDEST DUP3 MLOAD DUP2 PUSH1 0xFF AND LT ISZERO PUSH2 0x1ACD JUMPI PUSH1 0x0 DUP4 DUP3 PUSH1 0xFF AND DUP2 MLOAD DUP2 LT PUSH2 0x1A4C JUMPI PUSH2 0x1A4C PUSH2 0x25C0 JUMP JUMPDEST PUSH1 0x20 MUL PUSH1 0x20 ADD ADD MLOAD PUSH1 0x20 ADD MLOAD PUSH2 0xFFFF AND GT DUP1 ISZERO PUSH2 0x1A86 JUMPI POP DUP3 DUP2 PUSH1 0xFF AND DUP2 MLOAD DUP2 LT PUSH2 0x1A79 JUMPI PUSH2 0x1A79 PUSH2 0x25C0 JUMP JUMPDEST PUSH1 0x20 MUL PUSH1 0x20 ADD ADD MLOAD PUSH1 0x80 ADD MLOAD JUMPDEST ISZERO PUSH2 0x1ABB JUMPI PUSH2 0x1AB8 DUP5 DUP5 DUP4 PUSH1 0xFF AND DUP2 MLOAD DUP2 LT PUSH2 0x1AA4 JUMPI PUSH2 0x1AA4 PUSH2 0x25C0 JUMP JUMPDEST PUSH1 0x20 MUL PUSH1 0x20 ADD ADD MLOAD PUSH1 0x60 ADD MLOAD PUSH1 0xFF AND PUSH2 0x1C47 JUMP JUMPDEST SWAP4 POP JUMPDEST DUP1 PUSH2 0x1AC5 DUP2 PUSH2 0x24F8 JUMP JUMPDEST SWAP2 POP POP PUSH2 0x1A29 JUMP JUMPDEST POP SWAP2 SWAP3 SWAP2 POP POP JUMP JUMPDEST PUSH1 0x0 PUSH2 0x1AE2 PUSH1 0x3 DUP4 PUSH2 0x26EF JUMP JUMPDEST PUSH2 0xA2B SWAP1 PUSH1 0x5 PUSH2 0x2755 JUMP JUMPDEST PUSH1 0x0 DUP3 DUP3 PUSH1 0x40 MLOAD PUSH1 0x20 ADD PUSH2 0x1B25 SWAP3 SWAP2 SWAP1 SWAP2 DUP3 MSTORE PUSH4 0x2A3AB937 PUSH1 0xE1 SHL PUSH1 0x20 DUP4 ADD MSTORE PUSH1 0xF8 SHL PUSH1 0x1 PUSH1 0x1 PUSH1 0xF8 SHL SUB NOT AND PUSH1 0x24 DUP3 ADD MSTORE PUSH1 0x25 ADD SWAP1 JUMP JUMPDEST PUSH1 0x40 MLOAD PUSH1 0x20 DUP2 DUP4 SUB SUB DUP2 MSTORE SWAP1 PUSH1 0x40 MSTORE DUP1 MLOAD SWAP1 PUSH1 0x20 ADD KECCAK256 SWAP1 POP SWAP3 SWAP2 POP POP JUMP JUMPDEST PUSH1 0x0 PUSH1 0x13 PUSH1 0xFF DUP4 AND GT PUSH2 0x1B58 JUMPI POP PUSH1 0x0 SWAP2 SWAP1 POP JUMP JUMPDEST PUSH1 0x96 PUSH1 0xFF DUP4 AND GT PUSH2 0x1B6B JUMPI POP PUSH1 0x1 SWAP2 SWAP1 POP JUMP JUMPDEST PUSH1 0xC8 PUSH1 0xFF DUP4 AND GT PUSH2 0x1B7E JUMPI POP PUSH1 0x2 SWAP2 SWAP1 POP JUMP JUMPDEST PUSH1 0xF0 PUSH1 0xFF DUP4 AND GT PUSH2 0x1B91 JUMPI POP PUSH1 0x3 SWAP2 SWAP1 POP JUMP JUMPDEST POP PUSH1 0x4 SWAP2 SWAP1 POP JUMP JUMPDEST PUSH1 0x0 DUP1 DUP3 PUSH1 0x4 DUP2 GT ISZERO PUSH2 0x1BAE JUMPI PUSH2 0x1BAE PUSH2 0x1D45 JUMP JUMPDEST SUB PUSH2 0x1BBB JUMPI POP PUSH1 0x0 SWAP2 SWAP1 POP JUMP JUMPDEST PUSH1 0x1 DUP3 PUSH1 0x4 DUP2 GT ISZERO PUSH2 0x1BCF JUMPI PUSH2 0x1BCF PUSH2 0x1D45 JUMP JUMPDEST SUB PUSH2 0x1BDC JUMPI POP PUSH1 0x5 SWAP2 SWAP1 POP JUMP JUMPDEST PUSH1 0x2 DUP3 PUSH1 0x4 DUP2 GT ISZERO PUSH2 0x1BF0 JUMPI PUSH2 0x1BF0 PUSH2 0x1D45 JUMP JUMPDEST SUB PUSH2 0x1BFD JUMPI POP PUSH1 0x5 SWAP2 SWAP1 POP JUMP JUMPDEST PUSH1 0x3 DUP3 PUSH1 0x4 DUP2 GT ISZERO PUSH2 0x1C11 JUMPI PUSH2 0x1C11 PUSH2 0x1D45 JUMP JUMPDEST SUB PUSH2 0x1C1E JUMPI POP PUSH1 0xF SWAP2 SWAP1 POP JUMP JUMPDEST PUSH1 0x4 DUP3 PUSH1 0x4 DUP2 GT ISZERO PUSH2 0x1C32 JUMPI PUSH2 0x1C32 PUSH2 0x1D45 JUMP JUMPDEST SUB PUSH2 0x1C3F JUMPI POP PUSH1 0xA SWAP2 SWAP1 POP JUMP JUMPDEST POP PUSH1 0x0 SWAP2 SWAP1 POP JUMP JUMPDEST PUSH1 0x40 DUP1 MLOAD PUSH1 0x60 DUP2 ADD DUP3 MSTORE PUSH1 0x0 DUP1 DUP3 MSTORE PUSH1 0x20 DUP3 ADD DUP2 SWAP1 MSTORE DUP2 DUP4 ADD MSTORE SWAP1 DUP4 ADD MLOAD DUP3 SWAP1 PUSH2 0xFFFF AND ISZERO PUSH2 0x1CBF JUMPI DUP1 PUSH2 0xFFFF AND DUP5 PUSH1 0x40 ADD MLOAD PUSH2 0xFFFF AND LT PUSH2 0x1CA6 JUMPI DUP1 DUP5 PUSH1 0x40 ADD DUP2 DUP2 MLOAD PUSH2 0x1C95 SWAP2 SWAP1 PUSH2 0x273A JUMP JUMPDEST PUSH2 0xFFFF AND SWAP1 MSTORE POP DUP4 SWAP2 POP PUSH2 0xA2B SWAP1 POP JUMP JUMPDEST PUSH1 0x40 DUP5 ADD MLOAD PUSH2 0x1CB5 SWAP1 DUP3 PUSH2 0x273A JUMP JUMPDEST PUSH1 0x0 PUSH1 0x40 DUP7 ADD MSTORE SWAP1 POP JUMPDEST DUP4 MLOAD PUSH2 0xFFFF DUP1 DUP4 AND SWAP2 AND GT ISZERO PUSH2 0x1CED JUMPI DUP1 DUP5 PUSH1 0x0 ADD DUP2 DUP2 MLOAD PUSH2 0x1CE1 SWAP2 SWAP1 PUSH2 0x273A JUMP JUMPDEST PUSH2 0xFFFF AND SWAP1 MSTORE POP PUSH2 0x1ACD JUMP JUMPDEST POP POP PUSH1 0x0 DUP3 MSTORE POP SWAP1 JUMP JUMPDEST PUSH1 0x40 DUP1 MLOAD PUSH1 0xC0 DUP2 ADD DUP3 MSTORE PUSH1 0x0 DUP1 DUP3 MSTORE PUSH1 0x20 DUP3 ADD DUP2 SWAP1 MSTORE SWAP2 DUP2 ADD DUP3 SWAP1 MSTORE PUSH1 0x60 DUP2 ADD DUP3 SWAP1 MSTORE PUSH1 0x80 DUP2 ADD DUP3 SWAP1 MSTORE PUSH1 0xA0 DUP2 ADD SWAP2 SWAP1 SWAP2 MSTORE SWAP1 JUMP JUMPDEST PUSH1 0x0 PUSH1 0x20 DUP3 DUP5 SUB SLT ISZERO PUSH2 0x1D3E JUMPI PUSH1 0x0 DUP1 REVERT JUMPDEST POP CALLDATALOAD SWAP2 SWAP1 POP JUMP JUMPDEST PUSH4 0x4E487B71 PUSH1 0xE0 SHL PUSH1 0x0 MSTORE PUSH1 0x21 PUSH1 0x4 MSTORE PUSH1 0x24 PUSH1 0x0 REVERT JUMPDEST PUSH1 0x4 DUP2 LT PUSH2 0x1D6B JUMPI PUSH2 0x1D6B PUSH2 0x1D45 JUMP JUMPDEST SWAP1 MSTORE JUMP JUMPDEST PUSH1 0x3 DUP2 LT PUSH2 0x1D6B JUMPI PUSH2 0x1D6B PUSH2 0x1D45 JUMP JUMPDEST PUSH1 0x1 PUSH1 0x1 PUSH1 0xA0 SHL SUB DUP9 AND DUP2 MSTORE PUSH1 0x20 DUP2 ADD DUP8 SWAP1 MSTORE PUSH1 0x40 DUP2 ADD DUP7 SWAP1 MSTORE PUSH1 0xFF DUP6 AND PUSH1 0x60 DUP3 ADD MSTORE PUSH4 0xFFFFFFFF DUP5 AND PUSH1 0x80 DUP3 ADD MSTORE PUSH1 0xE0 DUP2 ADD PUSH2 0x1DBF PUSH1 0xA0 DUP4 ADD DUP6 PUSH2 0x1D5B JUMP JUMPDEST PUSH2 0x1DCC PUSH1 0xC0 DUP4 ADD DUP5 PUSH2 0x1D6F JUMP JUMPDEST SWAP9 SWAP8 POP POP POP POP POP POP POP POP JUMP JUMPDEST DUP1 CALLDATALOAD PUSH4 0xFFFFFFFF DUP2 AND DUP2 EQ PUSH2 0x1DEC JUMPI PUSH1 0x0 DUP1 REVERT JUMPDEST SWAP2 SWAP1 POP JUMP JUMPDEST PUSH1 0x0 DUP1 PUSH1 0x0 PUSH1 0x60 DUP5 DUP7 SUB SLT ISZERO PUSH2 0x1E06 JUMPI PUSH1 0x0 DUP1 REVERT JUMPDEST DUP4 CALLDATALOAD SWAP3 POP PUSH2 0x1E16 PUSH1 0x20 DUP6 ADD PUSH2 0x1DD8 JUMP JUMPDEST SWAP2 POP PUSH1 0x40 DUP5 ADD CALLDATALOAD SWAP1 POP SWAP3 POP SWAP3 POP SWAP3 JUMP JUMPDEST PUSH1 0x1 PUSH1 0x1 PUSH1 0x40 SHL SUB DUP2 AND DUP2 EQ PUSH2 0x1E3B JUMPI PUSH1 0x0 DUP1 REVERT JUMPDEST POP JUMP JUMPDEST DUP1 CALLDATALOAD PUSH1 0x1 PUSH1 0x1 PUSH1 0xA0 SHL SUB DUP2 AND DUP2 EQ PUSH2 0x1DEC JUMPI PUSH1 0x0 DUP1 REVERT JUMPDEST PUSH1 0x0 DUP1 PUSH1 0x0 PUSH1 0x60 DUP5 DUP7 SUB SLT ISZERO PUSH2 0x1E6A JUMPI PUSH1 0x0 DUP1 REVERT JUMPDEST DUP4 CALLDATALOAD PUSH2 0x1E75 DUP2 PUSH2 0x1E26 JUMP JUMPDEST SWAP3 POP PUSH2 0x1E16 PUSH1 0x20 DUP6 ADD PUSH2 0x1E3E JUMP JUMPDEST PUSH1 0x0 PUSH1 0x20 DUP3 DUP5 SUB SLT ISZERO PUSH2 0x1E95 JUMPI PUSH1 0x0 DUP1 REVERT JUMPDEST DUP2 CALLDATALOAD PUSH2 0x1EA0 DUP2 PUSH2 0x1E26 JUMP JUMPDEST SWAP4 SWAP3 POP POP POP JUMP JUMPDEST PUSH4 0x4E487B71 PUSH1 0xE0 SHL PUSH1 0x0 MSTORE PUSH1 0x41 PUSH1 0x4 MSTORE PUSH1 0x24 PUSH1 0x0 REVERT JUMPDEST PUSH1 0x40 MLOAD PUSH1 0xC0 DUP2 ADD PUSH1 0x1 PUSH1 0x1 PUSH1 0x40 SHL SUB DUP2 GT DUP3 DUP3 LT OR ISZERO PUSH2 0x1EDF JUMPI PUSH2 0x1EDF PUSH2 0x1EA7 JUMP JUMPDEST PUSH1 0x40 MSTORE SWAP1 JUMP JUMPDEST PUSH1 0x40 DUP1 MLOAD SWAP1 DUP2 ADD PUSH1 0x1 PUSH1 0x1 PUSH1 0x40 SHL SUB DUP2 GT DUP3 DUP3 LT OR ISZERO PUSH2 0x1EDF JUMPI PUSH2 0x1EDF PUSH2 0x1EA7 JUMP JUMPDEST PUSH1 0x40 MLOAD PUSH1 0x1F DUP3 ADD PUSH1 0x1F NOT AND DUP2 ADD PUSH1 0x1 PUSH1 0x1 PUSH1 0x40 SHL SUB DUP2 GT DUP3 DUP3 LT OR ISZERO PUSH2 0x1F2F JUMPI PUSH2 0x1F2F PUSH2 0x1EA7 JUMP JUMPDEST PUSH1 0x40 MSTORE SWAP2 SWAP1 POP JUMP JUMPDEST DUP1 CALLDATALOAD PUSH2 0xFFFF DUP2 AND DUP2 EQ PUSH2 0x1DEC JUMPI PUSH1 0x0 DUP1 REVERT JUMPDEST PUSH1 0x0 PUSH1 0x60 DUP3 DUP5 SUB SLT ISZERO PUSH2 0x1F5B JUMPI PUSH1 0x0 DUP1 REVERT JUMPDEST PUSH1 0x40 MLOAD PUSH1 0x60 DUP2 ADD DUP2 DUP2 LT PUSH1 0x1 PUSH1 0x1 PUSH1 0x40 SHL SUB DUP3 GT OR ISZERO PUSH2 0x1F7D JUMPI PUSH2 0x1F7D PUSH2 0x1EA7 JUMP JUMPDEST PUSH1 0x40 MSTORE SWAP1 POP DUP1 PUSH2 0x1F8C DUP4 PUSH2 0x1F37 JUMP JUMPDEST DUP2 MSTORE PUSH2 0x1F9A PUSH1 0x20 DUP5 ADD PUSH2 0x1F37 JUMP JUMPDEST PUSH1 0x20 DUP3 ADD MSTORE PUSH2 0x1FAB PUSH1 0x40 DUP5 ADD PUSH2 0x1F37 JUMP JUMPDEST PUSH1 0x40 DUP3 ADD MSTORE POP SWAP3 SWAP2 POP POP JUMP JUMPDEST PUSH1 0x0 PUSH1 0x1 PUSH1 0x1 PUSH1 0x40 SHL SUB DUP3 GT ISZERO PUSH2 0x1FD0 JUMPI PUSH2 0x1FD0 PUSH2 0x1EA7 JUMP JUMPDEST POP PUSH1 0x5 SHL PUSH1 0x20 ADD SWAP1 JUMP JUMPDEST DUP1 CALLDATALOAD PUSH1 0xFF DUP2 AND DUP2 EQ PUSH2 0x1DEC JUMPI PUSH1 0x0 DUP1 REVERT JUMPDEST DUP1 CALLDATALOAD DUP1 ISZERO ISZERO DUP2 EQ PUSH2 0x1DEC JUMPI PUSH1 0x0 DUP1 REVERT JUMPDEST PUSH1 0x0 DUP3 PUSH1 0x1F DUP4 ADD SLT PUSH2 0x200C JUMPI PUSH1 0x0 DUP1 REVERT JUMPDEST DUP2 CALLDATALOAD PUSH1 0x20 PUSH2 0x2021 PUSH2 0x201C DUP4 PUSH2 0x1FB7 JUMP JUMPDEST PUSH2 0x1F07 JUMP JUMPDEST DUP3 DUP2 MSTORE PUSH1 0xC0 SWAP3 DUP4 MUL DUP6 ADD DUP3 ADD SWAP3 DUP3 DUP3 ADD SWAP2 SWAP1 DUP8 DUP6 GT ISZERO PUSH2 0x2040 JUMPI PUSH1 0x0 DUP1 REVERT JUMPDEST DUP4 DUP8 ADD JUMPDEST DUP6 DUP2 LT ISZERO PUSH2 0x20CF JUMPI DUP2 DUP2 DUP11 SUB SLT ISZERO PUSH2 0x205C JUMPI PUSH1 0x0 DUP1 DUP2 REVERT JUMPDEST PUSH2 0x2064 PUSH2 0x1EBD JUMP JUMPDEST PUSH2 0x206D DUP3 PUSH2 0x1FDA JUMP JUMPDEST DUP2 MSTORE PUSH2 0x207A DUP7 DUP4 ADD PUSH2 0x1F37 JUMP JUMPDEST DUP7 DUP3 ADD MSTORE PUSH1 0x40 PUSH2 0x208B DUP2 DUP5 ADD PUSH2 0x1F37 JUMP JUMPDEST SWAP1 DUP3 ADD MSTORE PUSH1 0x60 PUSH2 0x209C DUP4 DUP3 ADD PUSH2 0x1FDA JUMP JUMPDEST SWAP1 DUP3 ADD MSTORE PUSH1 0x80 PUSH2 0x20AD DUP4 DUP3 ADD PUSH2 0x1FEB JUMP JUMPDEST SWAP1 DUP3 ADD MSTORE PUSH1 0xA0 PUSH2 0x20BE DUP4 DUP3 ADD PUSH2 0x1FEB JUMP JUMPDEST SWAP1 DUP3 ADD MSTORE DUP5 MSTORE SWAP3 DUP5 ADD SWAP3 DUP2 ADD PUSH2 0x2044 JUMP JUMPDEST POP SWAP1 SWAP8 SWAP7 POP POP POP POP POP POP POP JUMP JUMPDEST PUSH1 0x0 DUP3 PUSH1 0x1F DUP4 ADD SLT PUSH2 0x20ED JUMPI PUSH1 0x0 DUP1 REVERT JUMPDEST DUP2 CALLDATALOAD PUSH1 0x20 PUSH2 0x20FD PUSH2 0x201C DUP4 PUSH2 0x1FB7 JUMP JUMPDEST DUP3 DUP2 MSTORE PUSH1 0x6 SWAP3 SWAP1 SWAP3 SHL DUP5 ADD DUP2 ADD SWAP2 DUP2 DUP2 ADD SWAP1 DUP7 DUP5 GT ISZERO PUSH2 0x211C JUMPI PUSH1 0x0 DUP1 REVERT JUMPDEST DUP3 DUP7 ADD JUMPDEST DUP5 DUP2 LT ISZERO PUSH2 0x2169 JUMPI PUSH1 0x40 DUP2 DUP10 SUB SLT ISZERO PUSH2 0x2139 JUMPI PUSH1 0x0 DUP1 DUP2 REVERT JUMPDEST PUSH2 0x2141 PUSH2 0x1EE5 JUMP JUMPDEST PUSH2 0x214A DUP3 PUSH2 0x1FDA JUMP JUMPDEST DUP2 MSTORE PUSH2 0x2157 DUP6 DUP4 ADD PUSH2 0x1FDA JUMP JUMPDEST DUP2 DUP7 ADD MSTORE DUP4 MSTORE SWAP2 DUP4 ADD SWAP2 PUSH1 0x40 ADD PUSH2 0x2120 JUMP JUMPDEST POP SWAP7 SWAP6 POP POP POP POP POP POP JUMP JUMPDEST PUSH1 0x0 DUP1 PUSH1 0x0 DUP1 PUSH1 0xC0 DUP6 DUP8 SUB SLT ISZERO PUSH2 0x218A JUMPI PUSH1 0x0 DUP1 REVERT JUMPDEST DUP5 CALLDATALOAD SWAP4 POP PUSH2 0x219B DUP7 PUSH1 0x20 DUP8 ADD PUSH2 0x1F49 JUMP JUMPDEST SWAP3 POP PUSH1 0x80 DUP6 ADD CALLDATALOAD PUSH1 0x1 PUSH1 0x1 PUSH1 0x40 SHL SUB DUP1 DUP3 GT ISZERO PUSH2 0x21B7 JUMPI PUSH1 0x0 DUP1 REVERT JUMPDEST PUSH2 0x21C3 DUP9 DUP4 DUP10 ADD PUSH2 0x1FFB JUMP JUMPDEST SWAP4 POP PUSH1 0xA0 DUP8 ADD CALLDATALOAD SWAP2 POP DUP1 DUP3 GT ISZERO PUSH2 0x21D9 JUMPI PUSH1 0x0 DUP1 REVERT JUMPDEST POP PUSH2 0x21E6 DUP8 DUP3 DUP9 ADD PUSH2 0x20DC JUMP JUMPDEST SWAP2 POP POP SWAP3 SWAP6 SWAP2 SWAP5 POP SWAP3 POP JUMP JUMPDEST PUSH1 0x0 DUP1 PUSH1 0x40 DUP4 DUP6 SUB SLT ISZERO PUSH2 0x2205 JUMPI PUSH1 0x0 DUP1 REVERT JUMPDEST DUP3 CALLDATALOAD SWAP2 POP PUSH2 0x2215 PUSH1 0x20 DUP5 ADD PUSH2 0x1FDA JUMP JUMPDEST SWAP1 POP SWAP3 POP SWAP3 SWAP1 POP JUMP JUMPDEST PUSH1 0x20 DUP1 DUP3 MSTORE DUP3 MLOAD DUP3 DUP3 ADD DUP2 SWAP1 MSTORE PUSH1 0x0 SWAP2 SWAP1 PUSH1 0x40 SWAP1 DUP2 DUP6 ADD SWAP1 DUP7 DUP5 ADD DUP6 JUMPDEST DUP3 DUP2 LT ISZERO PUSH2 0x2280 JUMPI DUP2 MLOAD PUSH1 0xFF DUP1 DUP3 MLOAD AND DUP7 MSTORE DUP8 DUP3 ADD MLOAD PUSH1 0x5 DUP2 LT PUSH2 0x2261 JUMPI PUSH2 0x2261 PUSH2 0x1D45 JUMP JUMPDEST DUP7 DUP10 ADD MSTORE SWAP1 DUP7 ADD MLOAD AND DUP6 DUP6 ADD MSTORE PUSH1 0x60 SWAP1 SWAP4 ADD SWAP3 SWAP1 DUP6 ADD SWAP1 PUSH1 0x1 ADD PUSH2 0x223B JUMP JUMPDEST POP SWAP2 SWAP8 SWAP7 POP POP POP POP POP POP POP JUMP JUMPDEST PUSH1 0x1 PUSH1 0x1 PUSH1 0xA0 SHL SUB DUP8 AND DUP2 MSTORE PUSH1 0x20 DUP2 ADD DUP7 SWAP1 MSTORE PUSH1 0x40 DUP2 ADD DUP6 SWAP1 MSTORE PUSH1 0xFF DUP5 AND PUSH1 0x60 DUP3 ADD MSTORE PUSH1 0xC0 DUP2 ADD PUSH2 0x22C1 PUSH1 0x80 DUP4 ADD DUP6 PUSH2 0x1D5B JUMP JUMPDEST PUSH2 0x22CE PUSH1 0xA0 DUP4 ADD DUP5 PUSH2 0x1D6F JUMP JUMPDEST SWAP8 SWAP7 POP POP POP POP POP POP POP JUMP JUMPDEST PUSH1 0x0 PUSH1 0x20 DUP3 DUP5 SUB SLT ISZERO PUSH2 0x22EB JUMPI PUSH1 0x0 DUP1 REVERT JUMPDEST PUSH2 0xA28 DUP3 PUSH2 0x1E3E JUMP JUMPDEST PUSH1 0x0 DUP1 PUSH1 0x0 DUP1 PUSH1 0x0 DUP1 PUSH2 0x100 DUP8 DUP10 SUB SLT ISZERO PUSH2 0x230E JUMPI PUSH1 0x0 DUP1 REVERT JUMPDEST DUP7 CALLDATALOAD SWAP6 POP PUSH2 0x231F DUP9 PUSH1 0x20 DUP10 ADD PUSH2 0x1F49 JUMP JUMPDEST SWAP5 POP PUSH1 0x80 DUP8 ADD CALLDATALOAD PUSH1 0x1 PUSH1 0x1 PUSH1 0x40 SHL SUB DUP1 DUP3 GT ISZERO PUSH2 0x233B JUMPI PUSH1 0x0 DUP1 REVERT JUMPDEST PUSH2 0x2347 DUP11 DUP4 DUP12 ADD PUSH2 0x1FFB JUMP JUMPDEST SWAP6 POP PUSH2 0x2355 PUSH1 0xA0 DUP11 ADD PUSH2 0x1FDA JUMP JUMPDEST SWAP5 POP PUSH1 0xC0 DUP10 ADD CALLDATALOAD SWAP2 POP DUP1 DUP3 GT ISZERO PUSH2 0x236B JUMPI PUSH1 0x0 DUP1 REVERT JUMPDEST POP PUSH2 0x2378 DUP10 DUP3 DUP11 ADD PUSH2 0x20DC JUMP JUMPDEST SWAP3 POP POP PUSH2 0x2387 PUSH1 0xE0 DUP9 ADD PUSH2 0x1DD8 JUMP JUMPDEST SWAP1 POP SWAP3 SWAP6 POP SWAP3 SWAP6 POP SWAP3 SWAP6 JUMP JUMPDEST PUSH1 0x0 PUSH1 0xC0 DUP1 DUP4 ADD PUSH2 0xFFFF DUP1 DUP10 MLOAD AND DUP6 MSTORE PUSH1 0x20 DUP2 DUP2 DUP12 ADD MLOAD AND DUP2 DUP8 ADD MSTORE PUSH1 0x40 DUP3 PUSH1 0x40 DUP13 ADD MLOAD AND PUSH1 0x40 DUP9 ADD MSTORE PUSH1 0x60 PUSH1 0xC0 PUSH1 0x60 DUP10 ADD MSTORE DUP5 DUP12 MLOAD DUP1 DUP8 MSTORE PUSH1 0xE0 DUP11 ADD SWAP2 POP DUP5 DUP14 ADD SWAP7 POP PUSH1 0x0 JUMPDEST DUP2 DUP2 LT ISZERO PUSH2 0x2432 JUMPI DUP8 MLOAD DUP1 MLOAD PUSH1 0xFF SWAP1 DUP2 AND DUP6 MSTORE DUP8 DUP3 ADD MLOAD DUP10 AND DUP9 DUP7 ADD MSTORE DUP7 DUP3 ADD MLOAD DUP10 AND DUP8 DUP7 ADD MSTORE DUP6 DUP3 ADD MLOAD AND DUP6 DUP6 ADD MSTORE PUSH1 0x80 DUP1 DUP3 ADD MLOAD ISZERO ISZERO SWAP1 DUP6 ADD MSTORE PUSH1 0xA0 SWAP1 DUP2 ADD MLOAD ISZERO ISZERO SWAP1 DUP5 ADD MSTORE SWAP7 DUP6 ADD SWAP7 SWAP2 DUP9 ADD SWAP2 PUSH1 0x1 ADD PUSH2 0x23DA JUMP JUMPDEST POP POP DUP1 SWAP8 POP POP POP POP POP POP POP POP PUSH2 0x244B PUSH1 0x80 DUP4 ADD DUP6 PUSH2 0x1D6F JUMP JUMPDEST PUSH4 0xFFFFFFFF DUP4 AND PUSH1 0xA0 DUP4 ADD MSTORE SWAP6 SWAP5 POP POP POP POP POP JUMP JUMPDEST PUSH1 0x20 DUP1 DUP3 MSTORE PUSH1 0xD SWAP1 DUP3 ADD MSTORE PUSH13 0x4E6F7420796F75722067616D65 PUSH1 0x98 SHL PUSH1 0x40 DUP3 ADD MSTORE PUSH1 0x60 ADD SWAP1 JUMP JUMPDEST PUSH1 0x20 DUP1 DUP3 MSTORE PUSH1 0xF SWAP1 DUP3 ADD MSTORE PUSH15 0x47616D65206E6F7420616374697665 PUSH1 0x88 SHL PUSH1 0x40 DUP3 ADD MSTORE PUSH1 0x60 ADD SWAP1 JUMP JUMPDEST PUSH1 0x80 DUP2 ADD PUSH2 0x24BE DUP3 DUP8 PUSH2 0x1D6F JUMP JUMPDEST PUSH1 0xFF DUP6 AND PUSH1 0x20 DUP4 ADD MSTORE PUSH4 0xFFFFFFFF DUP5 AND PUSH1 0x40 DUP4 ADD MSTORE DUP3 PUSH1 0x60 DUP4 ADD MSTORE SWAP6 SWAP5 POP POP POP POP POP JUMP JUMPDEST PUSH4 0x4E487B71 PUSH1 0xE0 SHL PUSH1 0x0 MSTORE PUSH1 0x11 PUSH1 0x4 MSTORE PUSH1 0x24 PUSH1 0x0 REVERT JUMPDEST PUSH1 0x0 PUSH1 0xFF DUP3 AND PUSH1 0xFF DUP2 SUB PUSH2 0x250E JUMPI PUSH2 0x250E PUSH2 0x24E2 JUMP JUMPDEST PUSH1 0x1 ADD SWAP3 SWAP2 POP POP JUMP JUMPDEST PUSH1 0xFF DUP3 DUP2 AND DUP3 DUP3 AND SUB SWAP1 DUP2 GT ISZERO PUSH2 0xA2B JUMPI PUSH2 0xA2B PUSH2 0x24E2 JUMP JUMPDEST PUSH1 0xFF DUP5 AND DUP2 MSTORE PUSH1 0x20 DUP2 ADD DUP4 SWAP1 MSTORE PUSH1 0x60 DUP2 ADD PUSH2 0x106F PUSH1 0x40 DUP4 ADD DUP5 PUSH2 0x1D6F JUMP JUMPDEST PUSH1 0x0 PUSH1 0x20 DUP3 DUP5 SUB SLT ISZERO PUSH2 0x2560 JUMPI PUSH1 0x0 DUP1 REVERT JUMPDEST DUP2 MLOAD PUSH1 0x1 PUSH1 0x1 PUSH1 0x80 SHL SUB DUP2 AND DUP2 EQ PUSH2 0x1EA0 JUMPI PUSH1 0x0 DUP1 REVERT JUMPDEST PUSH1 0x0 PUSH1 0x1 DUP3 ADD PUSH2 0x2589 JUMPI PUSH2 0x2589 PUSH2 0x24E2 JUMP JUMPDEST POP PUSH1 0x1 ADD SWAP1 JUMP JUMPDEST PUSH1 0x0 PUSH1 0x20 DUP3 DUP5 SUB SLT ISZERO PUSH2 0x25A2 JUMPI PUSH1 0x0 DUP1 REVERT JUMPDEST DUP2 MLOAD PUSH2 0x1EA0 DUP2 PUSH2 0x1E26 JUMP JUMPDEST DUP2 DUP2 SUB DUP2 DUP2 GT ISZERO PUSH2 0xA2B JUMPI PUSH2 0xA2B PUSH2 0x24E2 JUMP JUMPDEST PUSH4 0x4E487B71 PUSH1 0xE0 SHL PUSH1 0x0 MSTORE PUSH1 0x32 PUSH1 0x4 MSTORE PUSH1 0x24 PUSH1 0x0 REVERT JUMPDEST PUSH1 0x0 DUP2 MLOAD PUSH1 0x0 JUMPDEST DUP2 DUP2 LT ISZERO PUSH2 0x25F7 JUMPI PUSH1 0x20 DUP2 DUP6 ADD DUP2 ADD MLOAD DUP7 DUP4 ADD MSTORE ADD PUSH2 0x25DD JUMP JUMPDEST POP PUSH1 0x0 SWAP4 ADD SWAP3 DUP4 MSTORE POP SWAP1 SWAP2 SWAP1 POP JUMP JUMPDEST PUSH1 0x0 PUSH2 0x2612 DUP3 DUP11 PUSH2 0x25D6 JUMP JUMPDEST PUSH1 0x1 PUSH1 0x1 PUSH1 0xF8 SHL SUB NOT PUSH1 0xF8 SWAP10 DUP11 SHL DUP2 AND DUP3 MSTORE PUSH1 0x1 PUSH1 0x1 PUSH1 0xF0 SHL SUB NOT PUSH1 0xF0 SWAP10 DUP11 SHL DUP2 AND PUSH1 0x1 DUP5 ADD MSTORE SWAP8 SWAP1 SWAP9 SHL SWAP1 SWAP7 AND PUSH1 0x3 DUP8 ADD MSTORE POP POP SWAP2 DUP6 SHL SWAP1 SWAP4 AND PUSH1 0x5 DUP4 ADD MSTORE SWAP2 ISZERO ISZERO DUP4 SHL PUSH1 0x6 DUP3 ADD MSTORE SWAP1 ISZERO ISZERO SWAP1 SWAP2 SHL PUSH1 0x7 DUP3 ADD MSTORE PUSH1 0x8 ADD SWAP2 SWAP1 POP JUMP JUMPDEST PUSH1 0x1 PUSH1 0x1 PUSH1 0xF0 SHL SUB NOT PUSH1 0xF0 DUP9 DUP2 SHL DUP3 AND DUP4 MSTORE DUP8 DUP2 SHL DUP3 AND PUSH1 0x2 DUP5 ADD MSTORE DUP7 SWAP1 SHL AND PUSH1 0x4 DUP3 ADD MSTORE PUSH1 0x1 PUSH1 0x1 PUSH1 0xF8 SHL SUB NOT PUSH1 0xF8 DUP6 SWAP1 SHL AND PUSH1 0x6 DUP3 ADD MSTORE PUSH1 0x1 PUSH1 0x1 PUSH1 0xE0 SHL SUB NOT PUSH1 0xE0 DUP5 SWAP1 SHL AND PUSH1 0x7 DUP3 ADD MSTORE PUSH1 0x0 PUSH2 0x1DCC PUSH1 0xB DUP4 ADD DUP5 PUSH2 0x25D6 JUMP JUMPDEST PUSH4 0xFFFFFFFF DUP2 DUP2 AND DUP4 DUP3 AND ADD SWAP1 DUP1 DUP3 GT ISZERO PUSH2 0x26E8 JUMPI PUSH2 0x26E8 PUSH2 0x24E2 JUMP JUMPDEST POP SWAP3 SWAP2 POP POP JUMP JUMPDEST PUSH1 0x0 PUSH1 0xFF DUP4 AND DUP1 PUSH2 0x2710 JUMPI PUSH4 0x4E487B71 PUSH1 0xE0 SHL PUSH1 0x0 MSTORE PUSH1 0x12 PUSH1 0x4 MSTORE PUSH1 0x24 PUSH1 0x0 REVERT JUMPDEST DUP1 PUSH1 0xFF DUP5 AND MOD SWAP2 POP POP SWAP3 SWAP2 POP POP JUMP JUMPDEST PUSH2 0xFFFF DUP2 DUP2 AND DUP4 DUP3 AND ADD SWAP1 DUP1 DUP3 GT ISZERO PUSH2 0x26E8 JUMPI PUSH2 0x26E8 PUSH2 0x24E2 JUMP JUMPDEST PUSH2 0xFFFF DUP3 DUP2 AND DUP3 DUP3 AND SUB SWAP1 DUP1 DUP3 GT ISZERO PUSH2 0x26E8 JUMPI PUSH2 0x26E8 PUSH2 0x24E2 JUMP JUMPDEST PUSH1 0xFF DUP2 DUP2 AND DUP4 DUP3 AND ADD SWAP1 DUP2 GT ISZERO PUSH2 0xA2B JUMPI PUSH2 0xA2B PUSH2 0x24E2 JUMP INVALID LOG2 PUSH5 0x6970667358 0x22 SLT KECCAK256 SWAP10 SWAP14 0xC1 BLOCKHASH MSTORE DUP14 0xDC SLT 0xE7 SWAP15 DUP15 0xBC CALL 0x4D PUSH26 0xD25F997E1648036A49B7D430448B2E216964736F6C6343000818 STOP CALLER "},"methodIdentifiers":{"ENTROPY()":"692be93b","_entropyCallback(uint64,address,bytes32)":"52a5f1f8","activeGameId(address)":"d16dcb95","claimVictory(uint256,uint32,bytes32)":"305dc415","forfeitGame(uint256)":"98be22f7","gameCounter()":"2e0be39a","games(uint256)":"117a5b90","getGame(uint256)":"a2f77bcc","getGameStateHash(uint256)":"a465a064","getHand(bytes32,uint8)":"912cd4aa","getVRFFee()":"f0034a7e","hasActiveGame(address)":"f104a80d","sequenceToGameId(uint64)":"5ef3bc0b","simulateTurn(bytes32,(uint16,uint16,uint16),(uint8,uint16,uint16,uint8,bool,bool)[],uint8,(uint8,uint8)[],uint32)":"e9f00787","startGame()":"d65ab5f2","submitTurn(uint256,(uint16,uint16,uint16),(uint8,uint16,uint16,uint8,bool,bool)[],(uint8,uint8)[])":"6af09dfa"}}}}}