{"contracts/MockVRF.sol":{"MockVRF":{"abi":[{"anonymous":false,"inputs":[{"indexed":true,"internalType":"uint256","name":"requestId","type":"uint256"},{"indexed":false,"internalType":"bytes32","name":"randomness","type":"bytes32"}],"name":"RandomnessFulfilled","type":"event"},{"anonymous":false,"inputs":[{"indexed":true,"internalType":"uint256","name":"requestId","type":"uint256"},{"indexed":true,"internalType":"address","name":"requester","type":"address"}],"name":"RandomnessRequested","type":"event"},{"inputs":[{"internalType":"address","name":"player","type":"address"},{"internalType":"uint256","name":"salt","type":"uint256"}],"name":"generateDeterministicSeed","outputs":[{"internalType":"bytes32","name":"","type":"bytes32"}],"stateMutability":"view","type":"function"},{"inputs":[{"internalType":"address","name":"player","type":"address"},{"internalType":"uint256","name":"salt","type":"uint256"}],"name":"generatePureDeterministicSeed","outputs":[{"internalType":"bytes32","name":"","type":"bytes32"}],"stateMutability":"pure","type":"function"},{"inputs":[{"internalType":"uint256","name":"requestId","type":"uint256"}],"name":"getRandomness","outputs":[{"internalType":"bytes32","name":"","type":"bytes32"}],"stateMutability":"view","type":"function"},{"inputs":[{"internalType":"uint8","name":"index","type":"uint8"}],"name":"getTestSeed","outputs":[{"internalType":"bytes32","name":"","type":"bytes32"}],"stateMutability":"pure","type":"function"},{"inputs":[{"internalType":"uint256","name":"requestId","type":"uint256"}],"name":"isFulfilled","outputs":[{"internalType":"bool","name":"","type":"bool"}],"stateMutability":"view","type":"function"},{"inputs":[{"internalType":"uint256","name":"","type":"uint256"}],"name":"randomness","outputs":[{"internalType":"bytes32","name":"","type":"bytes32"}],"stateMutability":"view","type":"function"},{"inputs":[],"name":"requestCounter","outputs":[{"internalType":"uint256","name":"","type":"uint256"}],"stateMutability":"view","type":"function"},{"inputs":[],"name":"requestRandomness","outputs":[{"internalType":"uint256","name":"requestId","type":"uint256"}],"stateMutability":"nonpayable","type":"function"},{"inputs":[{"internalType":"uint256","name":"","type":"uint256"}],"name":"requesters","outputs":[{"internalType":"address","name":"","type":"address"}],"stateMutability":"view","type":"function"}],"evm":{"bytecode":{"linkReferences":{},"object":"608060405234801561001057600080fd5b50610571806100206000396000f3fe608060405234801561001057600080fd5b50600436106100935760003560e01c8063453f4f6211610066578063453f4f6214610123578063553413db146101365780635e1a6c1714610149578063973a814e1461018a578063f8413b071461019357600080fd5b806301898dfe1461009857806309149020146100be57806318050770146100f05780631b1d5b2714610103575b600080fd5b6100ab6100a6366004610499565b61019b565b6040519081526020015b60405180910390f35b6100e06100cc3660046104d1565b600090815260016020526040902054151590565b60405190151581526020016100b5565b6100ab6100fe366004610499565b6101ea565b6100ab6101113660046104d1565b60016020526000908152604090205481565b6100ab6101313660046104d1565b610225565b6100ab6101443660046104ea565b610298565b6101726101573660046104d1565b6002602052600090815260409020546001600160a01b031681565b6040516001600160a01b0390911681526020016100b5565b6100ab60005481565b6100ab61036d565b6040516001600160601b0319606084901b166020820152603481018290524260548201524460748201526000906094015b60405160208183030381529060405280519060200120905092915050565b6040516001600160601b0319606084901b1660208201526034810182905268119055115093d5539160ba1b6054820152600090605d016101cc565b6000818152600160205260408120546102855760405162461bcd60e51b815260206004820152601860248201527f52616e646f6d6e657373206e6f7420617661696c61626c65000000000000000060448201526064015b60405180910390fd5b5060009081526001602052604090205490565b60008160ff166001036102cc57507f8f2a1b3c4d5e6f708192a3b4c5d6e7f80011223344556677889900aabbccddee919050565b8160ff166002036102fe57507fdeadbeefcafebabe0123456789abcdef0123456789abcdef0123456789abcdef919050565b8160ff1660030361033057507f1234567890abcdef1234567890abcdef1234567890abcdef1234567890abcdef919050565b60405162461bcd60e51b8152602060048201526012602482015271092dcecc2d8d2c840e6cacac840d2dcc8caf60731b604482015260640161027c565b60008054818061037c83610514565b9091555050600080548082526002602052604080832080546001600160a01b0319163390811790915590519193509183917f28f521cf7abd0044cba5bb040c5217ff69a4e5865f5262905018698e68fe7d009190a36103da816103dd565b90565b600380549060006103ed83610514565b919050555060004244338460035460405160200161043a959493929190948552602085019390935260609190911b6001600160601b03191660408401526054830152607482015260940190565b60408051808303601f1901815282825280516020918201206000868152600183529290922082905581835290925083917f03f7d57574663d59be9ab54c550599c569157e4cae8f878cb7316eb59656ad2d910160405180910390a25050565b600080604083850312156104ac57600080fd5b82356001600160a01b03811681146104c357600080fd5b946020939093013593505050565b6000602082840312156104e357600080fd5b5035919050565b6000602082840312156104fc57600080fd5b813560ff8116811461050d57600080fd5b9392505050565b60006001820161053457634e487b7160e01b600052601160045260246000fd5b506001019056fea26469706673582212200489b6ba101b5f301d9c801c37276e9ca231fbf445d01018ffe2e883a6d8b41264736f6c63430008180033","opcodes":"PUSH1 0x80 PUSH1 0x40 MSTORE CALLVALUE DUP1 ISZERO PUSH2 0x10 JUMPI PUSH1 0x0 DUP1 REVERT JUMPDEST POP PUSH2 0x571 DUP1 PUSH2 0x20 PUSH1 0x0 CODECOPY PUSH1 0x0 RETURN INVALID PUSH1 0x80 PUSH1 0x40 MSTORE CALLVALUE DUP1 ISZERO PUSH2 0x10 JUMPI PUSH1 0x0 DUP1 REVERT JUMPDEST POP PUSH1 0x4 CALLDATASIZE LT PUSH2 0x93 JUMPI PUSH1 0x0 CALLDATALOAD PUSH1 0xE0 SHR DUP1 PUSH4 0x453F4F62 GT PUSH2 0x66 JUMPI DUP1 PUSH4 0x453F4F62 EQ PUSH2 0x123 JUMPI DUP1 PUSH4 0x553413DB EQ PUSH2 0x136 JUMPI DUP1 PUSH4 0x5E1A6C17 EQ PUSH2 0x149 JUMPI DUP1 PUSH4 0x973A814E EQ PUSH2 0x18A JUMPI DUP1 PUSH4 0xF8413B07 EQ PUSH2 0x193 JUMPI PUSH1 0x0 DUP1 REVERT JUMPDEST DUP1 PUSH4 0x1898DFE EQ PUSH2 0x98 JUMPI DUP1 PUSH4 0x9149020 EQ PUSH2 0xBE JUMPI DUP1 PUSH4 0x18050770 EQ PUSH2 0xF0 JUMPI DUP1 PUSH4 0x1B1D5B27 EQ PUSH2 0x103 JUMPI JUMPDEST PUSH1 0x0 DUP1 REVERT JUMPDEST PUSH2 0xAB PUSH2 0xA6 CALLDATASIZE PUSH1 0x4 PUSH2 0x499 JUMP JUMPDEST PUSH2 0x19B JUMP JUMPDEST PUSH1 0x40 MLOAD SWAP1 DUP2 MSTORE PUSH1 0x20 ADD JUMPDEST PUSH1 0x40 MLOAD DUP1 SWAP2 SUB SWAP1 RETURN JUMPDEST PUSH2 0xE0 PUSH2 0xCC CALLDATASIZE PUSH1 0x4 PUSH2 0x4D1 JUMP JUMPDEST PUSH1 0x0 SWAP1 DUP2 MSTORE PUSH1 0x1 PUSH1 0x20 MSTORE PUSH1 0x40 SWAP1 KECCAK256 SLOAD ISZERO ISZERO SWAP1 JUMP JUMPDEST PUSH1 0x40 MLOAD SWAP1 ISZERO ISZERO DUP2 MSTORE PUSH1 0x20 ADD PUSH2 0xB5 JUMP JUMPDEST PUSH2 0xAB PUSH2 0xFE CALLDATASIZE PUSH1 0x4 PUSH2 0x499 JUMP JUMPDEST PUSH2 0x1EA JUMP JUMPDEST PUSH2 0xAB PUSH2 0x111 CALLDATASIZE PUSH1 0x4 PUSH2 0x4D1 JUMP JUMPDEST PUSH1 0x1 PUSH1 0x20 MSTORE PUSH1 0x0 SWAP1 DUP2 MSTORE PUSH1 0x40 SWAP1 KECCAK256 SLOAD DUP2 JUMP JUMPDEST PUSH2 0xAB PUSH2 0x131 CALLDATASIZE PUSH1 0x4 PUSH2 0x4D1 JUMP JUMPDEST PUSH2 0x225 JUMP JUMPDEST PUSH2 0xAB PUSH2 0x144 CALLDATASIZE PUSH1 0x4 PUSH2 0x4EA JUMP JUMPDEST PUSH2 0x298 JUMP JUMPDEST PUSH2 0x172 PUSH2 0x157 CALLDATASIZE PUSH1 0x4 PUSH2 0x4D1 JUMP JUMPDEST PUSH1 0x2 PUSH1 0x20 MSTORE PUSH1 0x0 SWAP1 DUP2 MSTORE PUSH1 0x40 SWAP1 KECCAK256 SLOAD PUSH1 0x1 PUSH1 0x1 PUSH1 0xA0 SHL SUB AND DUP2 JUMP JUMPDEST PUSH1 0x40 MLOAD PUSH1 0x1 PUSH1 0x1 PUSH1 0xA0 SHL SUB SWAP1 SWAP2 AND DUP2 MSTORE PUSH1 0x20 ADD PUSH2 0xB5 JUMP JUMPDEST PUSH2 0xAB PUSH1 0x0 SLOAD DUP2 JUMP JUMPDEST PUSH2 0xAB PUSH2 0x36D JUMP JUMPDEST PUSH1 0x40 MLOAD PUSH1 0x1 PUSH1 0x1 PUSH1 0x60 SHL SUB NOT PUSH1 0x60 DUP5 SWAP1 SHL AND PUSH1 0x20 DUP3 ADD MSTORE PUSH1 0x34 DUP2 ADD DUP3 SWAP1 MSTORE TIMESTAMP PUSH1 0x54 DUP3 ADD MSTORE PREVRANDAO PUSH1 0x74 DUP3 ADD MSTORE PUSH1 0x0 SWAP1 PUSH1 0x94 ADD JUMPDEST PUSH1 0x40 MLOAD PUSH1 0x20 DUP2 DUP4 SUB SUB DUP2 MSTORE SWAP1 PUSH1 0x40 MSTORE DUP1 MLOAD SWAP1 PUSH1 0x20 ADD KECCAK256 SWAP1 POP SWAP3 SWAP2 POP POP JUMP JUMPDEST PUSH1 0x40 MLOAD PUSH1 0x1 PUSH1 0x1 PUSH1 0x60 SHL SUB NOT PUSH1 0x60 DUP5 SWAP1 SHL AND PUSH1 0x20 DUP3 ADD MSTORE PUSH1 0x34 DUP2 ADD DUP3 SWAP1 MSTORE PUSH9 0x119055115093D55391 PUSH1 0xBA SHL PUSH1 0x54 DUP3 ADD MSTORE PUSH1 0x0 SWAP1 PUSH1 0x5D ADD PUSH2 0x1CC JUMP JUMPDEST PUSH1 0x0 DUP2 DUP2 MSTORE PUSH1 0x1 PUSH1 0x20 MSTORE PUSH1 0x40 DUP2 KECCAK256 SLOAD PUSH2 0x285 JUMPI PUSH1 0x40 MLOAD PUSH3 0x461BCD PUSH1 0xE5 SHL DUP2 MSTORE PUSH1 0x20 PUSH1 0x4 DUP3 ADD MSTORE PUSH1 0x18 PUSH1 0x24 DUP3 ADD MSTORE PUSH32 0x52616E646F6D6E657373206E6F7420617661696C61626C650000000000000000 PUSH1 0x44 DUP3 ADD MSTORE PUSH1 0x64 ADD JUMPDEST PUSH1 0x40 MLOAD DUP1 SWAP2 SUB SWAP1 REVERT JUMPDEST POP PUSH1 0x0 SWAP1 DUP2 MSTORE PUSH1 0x1 PUSH1 0x20 MSTORE PUSH1 0x40 SWAP1 KECCAK256 SLOAD SWAP1 JUMP JUMPDEST PUSH1 0x0 DUP2 PUSH1 0xFF AND PUSH1 0x1 SUB PUSH2 0x2CC JUMPI POP PUSH32 0x8F2A1B3C4D5E6F708192A3B4C5D6E7F80011223344556677889900AABBCCDDEE SWAP2 SWAP1 POP JUMP JUMPDEST DUP2 PUSH1 0xFF AND PUSH1 0x2 SUB PUSH2 0x2FE JUMPI POP PUSH32 0xDEADBEEFCAFEBABE0123456789ABCDEF0123456789ABCDEF0123456789ABCDEF SWAP2 SWAP1 POP JUMP JUMPDEST DUP2 PUSH1 0xFF AND PUSH1 0x3 SUB PUSH2 0x330 JUMPI POP PUSH32 0x1234567890ABCDEF1234567890ABCDEF1234567890ABCDEF1234567890ABCDEF SWAP2 SWAP1 POP JUMP JUMPDEST PUSH1 0x40 MLOAD PUSH3 0x461BCD PUSH1 0xE5 SHL DUP2 MSTORE PUSH1 0x20 PUSH1 0x4 DUP3 ADD MSTORE PUSH1 0x12 PUSH1 0x24 DUP3 ADD MSTORE PUSH18 0x92DCECC2D8D2C840E6CACAC840D2DCC8CAF PUSH1 0x73 SHL PUSH1 0x44 DUP3 ADD MSTORE PUSH1 0x64 ADD PUSH2 0x27C JUMP JUMPDEST PUSH1 0x0 DUP1 SLOAD DUP2 DUP1 PUSH2 0x37C DUP4 PUSH2 0x514 JUMP JUMPDEST SWAP1 SWAP2 SSTORE POP POP PUSH1 0x0 DUP1 SLOAD DUP1 DUP3 MSTORE PUSH1 0x2 PUSH1 0x20 MSTORE PUSH1 0x40 DUP1 DUP4 KECCAK256 DUP1 SLOAD PUSH1 0x1 PUSH1 0x1 PUSH1 0xA0 SHL SUB NOT AND CALLER SWAP1 DUP2 OR SWAP1 SWAP2 SSTORE SWAP1 MLOAD SWAP2 SWAP4 POP SWAP2 DUP4 SWAP2 PUSH32 0x28F521CF7ABD0044CBA5BB040C5217FF69A4E5865F5262905018698E68FE7D00 SWAP2 SWAP1 LOG3 PUSH2 0x3DA DUP2 PUSH2 0x3DD JUMP JUMPDEST SWAP1 JUMP JUMPDEST PUSH1 0x3 DUP1 SLOAD SWAP1 PUSH1 0x0 PUSH2 0x3ED DUP4 PUSH2 0x514 JUMP JUMPDEST SWAP2 SWAP1 POP SSTORE POP PUSH1 0x0 TIMESTAMP PREVRANDAO CALLER DUP5 PUSH1 0x3 SLOAD PUSH1 0x40 MLOAD PUSH1 0x20 ADD PUSH2 0x43A SWAP6 SWAP5 SWAP4 SWAP3 SWAP2 SWAP1 SWAP5 DUP6 MSTORE PUSH1 0x20 DUP6 ADD SWAP4 SWAP1 SWAP4 MSTORE PUSH1 0x60 SWAP2 SWAP1 SWAP2 SHL PUSH1 0x1 PUSH1 0x1 PUSH1 0x60 SHL SUB NOT AND PUSH1 0x40 DUP5 ADD MSTORE PUSH1 0x54 DUP4 ADD MSTORE PUSH1 0x74 DUP3 ADD MSTORE PUSH1 0x94 ADD SWAP1 JUMP JUMPDEST PUSH1 0x40 DUP1 MLOAD DUP1 DUP4 SUB PUSH1 0x1F NOT ADD DUP2 MSTORE DUP3 DUP3 MSTORE DUP1 MLOAD PUSH1 0x20 SWAP2 DUP3 ADD KECCAK256 PUSH1 0x0 DUP7 DUP2 MSTORE PUSH1 0x1 DUP4 MSTORE SWAP3 SWAP1 SWAP3 KECCAK256 DUP3 SWAP1 SSTORE DUP2 DUP4 MSTORE SWAP1 SWAP3 POP DUP4 SWAP2 PUSH32 0x3F7D57574663D59BE9AB54C550599C569157E4CAE8F878CB7316EB59656AD2D SWAP2 ADD PUSH1 0x40 MLOAD DUP1 SWAP2 SUB SWAP1 LOG2 POP POP JUMP JUMPDEST PUSH1 0x0 DUP1 PUSH1 0x40 DUP4 DUP6 SUB SLT ISZERO PUSH2 0x4AC JUMPI PUSH1 0x0 DUP1 REVERT JUMPDEST DUP3 CALLDATALOAD PUSH1 0x1 PUSH1 0x1 PUSH1 0xA0 SHL SUB DUP2 AND DUP2 EQ PUSH2 0x4C3 JUMPI PUSH1 0x0 DUP1 REVERT JUMPDEST SWAP5 PUSH1 0x20 SWAP4 SWAP1 SWAP4 ADD CALLDATALOAD SWAP4 POP POP POP JUMP JUMPDEST PUSH1 0x0 PUSH1 0x20 DUP3 DUP5 SUB SLT ISZERO PUSH2 0x4E3 JUMPI PUSH1 0x0 DUP1 REVERT JUMPDEST POP CALLDATALOAD SWAP2 SWAP1 POP JUMP JUMPDEST PUSH1 0x0 PUSH1 0x20 DUP3 DUP5 SUB SLT ISZERO PUSH2 0x4FC JUMPI PUSH1 0x0 DUP1 REVERT JUMPDEST DUP2 CALLDATALOAD PUSH1 0xFF DUP2 AND DUP2 EQ PUSH2 0x50D JUMPI PUSH1 0x0 DUP1 REVERT JUMPDEST SWAP4 SWAP3 POP POP POP JUMP JUMPDEST PUSH1 0x0 PUSH1 0x1 DUP3 ADD PUSH2 0x534 JUMPI PUSH4 0x4E487B71 PUSH1 0xE0 SHL PUSH1 0x0 MSTORE PUSH1 0x11 PUSH1 0x4 MSTORE PUSH1 0x24 PUSH1 0x0 REVERT JUMPDEST POP PUSH1 0x1 ADD SWAP1 JUMP INVALID LOG2 PUSH5 0x6970667358 0x22 SLT KECCAK256 DIV DUP10 0xB6 0xBA LT SHL PUSH0 ADDRESS SAR SWAP13 DUP1 SHR CALLDATACOPY 0x27 PUSH15 0x9CA231FBF445D01018FFE2E883A6D8 0xB4 SLT PUSH5 0x736F6C6343 STOP ADDMOD XOR STOP CALLER "},"methodIdentifiers":{"generateDeterministicSeed(address,uint256)":"01898dfe","generatePureDeterministicSeed(address,uint256)":"18050770","getRandomness(uint256)":"453f4f62","getTestSeed(uint8)":"553413db","isFulfilled(uint256)":"09149020","randomness(uint256)":"1b1d5b27","requestCounter()":"973a814e","requestRandomness()":"f8413b07","requesters(uint256)":"5e1a6c17"}}}}}