{
  "_format": "hh-sol-artifact-1",
  "contractName": "FateboundCore",
  "sourceName": "contracts/FateboundCore.sol",
  "abi": [
    {
      "inputs": [],
      "stateMutability": "nonpayable",
      "type": "constructor"
    },
    {
      "anonymous": false,
      "inputs": [
        {
          "indexed": true,
          "internalType": "uint256",
          "name": "gameId",
          "type": "uint256"
        },
        {
          "indexed": true,
          "internalType": "address",
          "name": "player",
          "type": "address"
        },
        {
          "indexed": false,
          "internalType": "uint256",
          "name": "score",
          "type": "uint256"
        }
      ],
      "name": "GameCompleted",
      "type": "event"
    },
    {
      "anonymous": false,
      "inputs": [
        {
          "indexed": true,
          "internalType": "uint256",
          "name": "gameId",
          "type": "uint256"
        },
        {
          "indexed": true,
          "internalType": "address",
          "name": "player",
          "type": "address"
        },
        {
          "indexed": false,
          "internalType": "uint64",
          "name": "sequenceNumber",
          "type": "uint64"
        }
      ],
      "name": "GameRequested",
      "type": "event"
    },
    {
      "anonymous": false,
      "inputs": [
        {
          "indexed": true,
          "internalType": "uint256",
          "name": "gameId",
          "type": "uint256"
        },
        {
          "indexed": true,
          "internalType": "address",
          "name": "player",
          "type": "address"
        },
        {
          "indexed": false,
          "internalType": "bytes32",
          "name": "seed",
          "type": "bytes32"
        }
      ],
      "name": "GameStarted",
      "type": "event"
    },
    {
      "anonymous": false,
      "inputs": [
        {
          "indexed": true,
          "internalType": "uint256",
          "name": "gameId",
          "type": "uint256"
        },
        {
          "indexed": false,
          "internalType": "uint8",
          "name": "turn",
          "type": "uint8"
        },
        {
          "indexed": false,
          "internalType": "bytes32",
          "name": "stateHash",
          "type": "bytes32"
        },
        {
          "indexed": false,
          "internalType": "enum TurnVerifier.TurnResult",
          "name": "result",
          "type": "uint8"
        }
      ],
      "name": "TurnSubmitted",
      "type": "event"
    },
    {
      "inputs": [],
      "name": "ENTROPY",
      "outputs": [
        {
          "internalType": "address",
          "name": "",
          "type": "address"
        }
      ],
      "stateMutability": "view",
      "type": "function"
    },
    {
      "inputs": [
        {
          "internalType": "uint64",
          "name": "sequenceNumber",
          "type": "uint64"
        },
        {
          "internalType": "address",
          "name": "_provider",
          "type": "address"
        },
        {
          "internalType": "bytes32",
          "name": "randomNumber",
          "type": "bytes32"
        }
      ],
      "name": "_entropyCallback",
      "outputs": [],
      "stateMutability": "nonpayable",
      "type": "function"
    },
    {
      "inputs": [
        {
          "internalType": "address",
          "name": "",
          "type": "address"
        }
      ],
      "name": "activeGameId",
      "outputs": [
        {
          "internalType": "uint256",
          "name": "",
          "type": "uint256"
        }
      ],
      "stateMutability": "view",
      "type": "function"
    },
    {
      "inputs": [
        {
          "internalType": "uint256",
          "name": "gameId",
          "type": "uint256"
        },
        {
          "internalType": "uint256",
          "name": "claimedScore",
          "type": "uint256"
        }
      ],
      "name": "claimVictory",
      "outputs": [],
      "stateMutability": "nonpayable",
      "type": "function"
    },
    {
      "inputs": [
        {
          "internalType": "uint256",
          "name": "gameId",
          "type": "uint256"
        }
      ],
      "name": "forfeitGame",
      "outputs": [],
      "stateMutability": "nonpayable",
      "type": "function"
    },
    {
      "inputs": [],
      "name": "gameCounter",
      "outputs": [
        {
          "internalType": "uint256",
          "name": "",
          "type": "uint256"
        }
      ],
      "stateMutability": "view",
      "type": "function"
    },
    {
      "inputs": [
        {
          "internalType": "uint256",
          "name": "",
          "type": "uint256"
        }
      ],
      "name": "games",
      "outputs": [
        {
          "internalType": "address",
          "name": "player",
          "type": "address"
        },
        {
          "internalType": "bytes32",
          "name": "seed",
          "type": "bytes32"
        },
        {
          "internalType": "bytes32",
          "name": "stateHash",
          "type": "bytes32"
        },
        {
          "internalType": "uint8",
          "name": "currentTurn",
          "type": "uint8"
        },
        {
          "internalType": "uint32",
          "name": "score",
          "type": "uint32"
        },
        {
          "internalType": "enum FateboundCore.GameStatus",
          "name": "status",
          "type": "uint8"
        },
        {
          "internalType": "enum TurnVerifier.TurnResult",
          "name": "result",
          "type": "uint8"
        }
      ],
      "stateMutability": "view",
      "type": "function"
    },
    {
      "inputs": [
        {
          "internalType": "uint256",
          "name": "gameId",
          "type": "uint256"
        }
      ],
      "name": "getGame",
      "outputs": [
        {
          "internalType": "address",
          "name": "player",
          "type": "address"
        },
        {
          "internalType": "bytes32",
          "name": "seed",
          "type": "bytes32"
        },
        {
          "internalType": "bytes32",
          "name": "stateHash",
          "type": "bytes32"
        },
        {
          "internalType": "uint8",
          "name": "currentTurn",
          "type": "uint8"
        },
        {
          "internalType": "enum FateboundCore.GameStatus",
          "name": "status",
          "type": "uint8"
        },
        {
          "internalType": "enum TurnVerifier.TurnResult",
          "name": "result",
          "type": "uint8"
        }
      ],
      "stateMutability": "view",
      "type": "function"
    },
    {
      "inputs": [
        {
          "internalType": "uint256",
          "name": "gameId",
          "type": "uint256"
        }
      ],
      "name": "getGameStateHash",
      "outputs": [
        {
          "internalType": "bytes32",
          "name": "",
          "type": "bytes32"
        }
      ],
      "stateMutability": "view",
      "type": "function"
    },
    {
      "inputs": [
        {
          "internalType": "bytes32",
          "name": "seed",
          "type": "bytes32"
        },
        {
          "internalType": "uint8",
          "name": "turn",
          "type": "uint8"
        }
      ],
      "name": "getHand",
      "outputs": [
        {
          "components": [
            {
              "internalType": "uint8",
              "name": "byteValue",
              "type": "uint8"
            },
            {
              "internalType": "enum TurnVerifier.PacketType",
              "name": "packetType",
              "type": "uint8"
            },
            {
              "internalType": "uint8",
              "name": "value",
              "type": "uint8"
            }
          ],
          "internalType": "struct TurnVerifier.Packet[]",
          "name": "",
          "type": "tuple[]"
        }
      ],
      "stateMutability": "pure",
      "type": "function"
    },
    {
      "inputs": [],
      "name": "getVRFFee",
      "outputs": [
        {
          "internalType": "uint128",
          "name": "",
          "type": "uint128"
        }
      ],
      "stateMutability": "view",
      "type": "function"
    },
    {
      "inputs": [
        {
          "internalType": "address",
          "name": "player",
          "type": "address"
        }
      ],
      "name": "hasActiveGame",
      "outputs": [
        {
          "internalType": "bool",
          "name": "",
          "type": "bool"
        }
      ],
      "stateMutability": "view",
      "type": "function"
    },
    {
      "inputs": [
        {
          "internalType": "uint64",
          "name": "",
          "type": "uint64"
        }
      ],
      "name": "sequenceToGameId",
      "outputs": [
        {
          "internalType": "uint256",
          "name": "",
          "type": "uint256"
        }
      ],
      "stateMutability": "view",
      "type": "function"
    },
    {
      "inputs": [
        {
          "internalType": "bytes32",
          "name": "seed",
          "type": "bytes32"
        },
        {
          "components": [
            {
              "internalType": "uint16",
              "name": "hp",
              "type": "uint16"
            },
            {
              "internalType": "uint16",
              "name": "maxHp",
              "type": "uint16"
            },
            {
              "internalType": "uint16",
              "name": "shield",
              "type": "uint16"
            }
          ],
          "internalType": "struct TurnVerifier.Player",
          "name": "player",
          "type": "tuple"
        },
        {
          "components": [
            {
              "internalType": "uint8",
              "name": "id",
              "type": "uint8"
            },
            {
              "internalType": "uint16",
              "name": "hp",
              "type": "uint16"
            },
            {
              "internalType": "uint16",
              "name": "maxHp",
              "type": "uint16"
            },
            {
              "internalType": "uint8",
              "name": "damage",
              "type": "uint8"
            },
            {
              "internalType": "bool",
              "name": "isAttacking",
              "type": "bool"
            },
            {
              "internalType": "bool",
              "name": "isCache",
              "type": "bool"
            }
          ],
          "internalType": "struct TurnVerifier.Enemy[]",
          "name": "enemies",
          "type": "tuple[]"
        },
        {
          "internalType": "uint8",
          "name": "turn",
          "type": "uint8"
        },
        {
          "components": [
            {
              "internalType": "uint8",
              "name": "packetIndex",
              "type": "uint8"
            },
            {
              "internalType": "uint8",
              "name": "targetType",
              "type": "uint8"
            }
          ],
          "internalType": "struct TurnVerifier.Assignment[]",
          "name": "assignments",
          "type": "tuple[]"
        },
        {
          "internalType": "uint32",
          "name": "initialScore",
          "type": "uint32"
        }
      ],
      "name": "simulateTurn",
      "outputs": [
        {
          "components": [
            {
              "internalType": "uint16",
              "name": "hp",
              "type": "uint16"
            },
            {
              "internalType": "uint16",
              "name": "maxHp",
              "type": "uint16"
            },
            {
              "internalType": "uint16",
              "name": "shield",
              "type": "uint16"
            }
          ],
          "internalType": "struct TurnVerifier.Player",
          "name": "newPlayer",
          "type": "tuple"
        },
        {
          "components": [
            {
              "internalType": "uint8",
              "name": "id",
              "type": "uint8"
            },
            {
              "internalType": "uint16",
              "name": "hp",
              "type": "uint16"
            },
            {
              "internalType": "uint16",
              "name": "maxHp",
              "type": "uint16"
            },
            {
              "internalType": "uint8",
              "name": "damage",
              "type": "uint8"
            },
            {
              "internalType": "bool",
              "name": "isAttacking",
              "type": "bool"
            },
            {
              "internalType": "bool",
              "name": "isCache",
              "type": "bool"
            }
          ],
          "internalType": "struct TurnVerifier.Enemy[]",
          "name": "newEnemies",
          "type": "tuple[]"
        },
        {
          "internalType": "enum TurnVerifier.TurnResult",
          "name": "result",
          "type": "uint8"
        },
        {
          "internalType": "uint32",
          "name": "newScore",
          "type": "uint32"
        }
      ],
      "stateMutability": "pure",
      "type": "function"
    },
    {
      "inputs": [],
      "name": "startGame",
      "outputs": [
        {
          "internalType": "uint256",
          "name": "gameId",
          "type": "uint256"
        },
        {
          "internalType": "uint64",
          "name": "sequenceNumber",
          "type": "uint64"
        }
      ],
      "stateMutability": "payable",
      "type": "function"
    },
    {
      "inputs": [
        {
          "internalType": "uint256",
          "name": "gameId",
          "type": "uint256"
        },
        {
          "components": [
            {
              "internalType": "uint16",
              "name": "hp",
              "type": "uint16"
            },
            {
              "internalType": "uint16",
              "name": "maxHp",
              "type": "uint16"
            },
            {
              "internalType": "uint16",
              "name": "shield",
              "type": "uint16"
            }
          ],
          "internalType": "struct TurnVerifier.Player",
          "name": "player",
          "type": "tuple"
        },
        {
          "components": [
            {
              "internalType": "uint8",
              "name": "id",
              "type": "uint8"
            },
            {
              "internalType": "uint16",
              "name": "hp",
              "type": "uint16"
            },
            {
              "internalType": "uint16",
              "name": "maxHp",
              "type": "uint16"
            },
            {
              "internalType": "uint8",
              "name": "damage",
              "type": "uint8"
            },
            {
              "internalType": "bool",
              "name": "isAttacking",
              "type": "bool"
            },
            {
              "internalType": "bool",
              "name": "isCache",
              "type": "bool"
            }
          ],
          "internalType": "struct TurnVerifier.Enemy[]",
          "name": "enemies",
          "type": "tuple[]"
        },
        {
          "components": [
            {
              "internalType": "uint8",
              "name": "packetIndex",
              "type": "uint8"
            },
            {
              "internalType": "uint8",
              "name": "targetType",
              "type": "uint8"
            }
          ],
          "internalType": "struct TurnVerifier.Assignment[]",
          "name": "assignments",
          "type": "tuple[]"
        }
      ],
      "name": "submitTurn",
      "outputs": [],
      "stateMutability": "nonpayable",
      "type": "function"
    },
    {
      "stateMutability": "payable",
      "type": "receive"
    }
  ],
  "bytecode": "0x608060405234801561001057600080fd5b5061275b806100206000396000f3fe6080604052600436106100f75760003560e01c806398be22f71161008a578063d65ab5f211610059578063d65ab5f2146103a9578063e9f00787146103ce578063f0034a7e146103fe578063f104a80d1461042b57600080fd5b806398be22f7146102b2578063a2f77bcc146102d2578063a465a0641461034c578063d16dcb951461037c57600080fd5b80635ef3bc0b116100c65780635ef3bc0b146101f8578063692be93b146102255780636af09dfa14610265578063912cd4aa1461028557600080fd5b8063117a5b90146101035780632e0be39a146101925780633ae3de93146101b657806352a5f1f8146101d857600080fd5b366100fe57005b600080fd5b34801561010f57600080fd5b5061017661011e366004611d1f565b600160208190526000918252604090912080549181015460028201546003909201546001600160a01b039093169290919060ff8082169163ffffffff61010082041691600160281b8204811691600160301b90041687565b6040516101899796959493929190611d72565b60405180910390f35b34801561019e57600080fd5b506101a860005481565b604051908152602001610189565b3480156101c257600080fd5b506101d66101d1366004611dcb565b61045b565b005b3480156101e457600080fd5b506101d66101f3366004611e21565b61053f565b34801561020457600080fd5b506101a8610213366004611e5f565b60036020526000908152604090205481565b34801561023157600080fd5b5061024d73825c0390f379c631f3cf11a82a37d20bddf93c0781565b6040516001600160a01b039091168152602001610189565b34801561027157600080fd5b506101d6610280366004612150565b61074c565b34801561029157600080fd5b506102a56102a03660046121ce565b6109ec565b60405161018991906121fa565b3480156102be57600080fd5b506101d66102cd366004611d1f565b610a01565b3480156102de57600080fd5b5061033a6102ed366004611d1f565b600090815260016020819052604090912080549181015460028201546003909201546001600160a01b0390931693909260ff80821692600160281b8304821692600160301b900490911690565b60405161018996959493929190612269565b34801561035857600080fd5b506101a8610367366004611d1f565b60009081526001602052604090206002015490565b34801561038857600080fd5b506101a86103973660046122b5565b60026020526000908152604090205481565b6103b1610b06565b604080519283526001600160401b03909116602083015201610189565b3480156103da57600080fd5b506103ee6103e93660046122d0565b610efa565b604051610189949392919061237c565b34801561040a57600080fd5b50610413610f3e565b6040516001600160801b039091168152602001610189565b34801561043757600080fd5b5061044b6104463660046122b5565b610fbb565b6040519015158152602001610189565b600082815260016020526040902080546001600160a01b0316331461049b5760405162461bcd60e51b815260040161049290612449565b60405180910390fd5b6002600382810154600160281b900460ff16908111156104bd576104bd611d38565b146104da5760405162461bcd60e51b815260040161049290612470565b60038101805463ffffffff84166101000266ffffffffffff0019909116176601030000000000179055604051828152339084907ff6ae188cc6336ef5ad970d3c81cda5814b4c4902540924c6924debe94ece13eb9060200160405180910390a3505050565b3373825c0390f379c631f3cf11a82a37d20bddf93c07146105a25760405162461bcd60e51b815260206004820152601e60248201527f4f6e6c7920456e74726f707920636f6e74726163742063616e2063616c6c00006044820152606401610492565b6001600160401b0383166000908152600360205260408120549081900361060b5760405162461bcd60e51b815260206004820152601760248201527f556e6b6e6f776e2073657175656e6365206e756d6265720000000000000000006044820152606401610492565b600081815260016020819052604090912090600382810154600160281b900460ff169081111561063d5761063d611d38565b1461068a5760405162461bcd60e51b815260206004820152601860248201527f47616d65206e6f742077616974696e6720666f722056524600000000000000006044820152606401610492565b6001810183905560038101805465ff00000000ff19166502000000000117905560408051606081018252606480825260208201526000918101829052906106cf611039565b90506106df828260016000611172565b60028401556001600160401b038716600090815260036020908152604080832092909255845491518781526001600160a01b039092169186917fc63a891a22ac932ad47ce11dc7db2669046ac95b4049d199495392b68f4d0114910160405180910390a350505050505050565b600084815260016020526040902080546001600160a01b031633146107835760405162461bcd60e51b815260040161049290612449565b6002600382810154600160281b900460ff16908111156107a5576107a5611d38565b146107c25760405162461bcd60e51b815260040161049290612470565b60038101546000906107e7908690869060ff811690610100900463ffffffff16611172565b9050816002015481146108475760405162461bcd60e51b815260206004820152602260248201527f5374617465206d69736d61746368202d20696e76616c6964207072652d737461604482015261746560f01b6064820152608401610492565b6001820154600383015460009182918291829161087a91908b908b9060ff8116908c90610100900463ffffffff166112c9565b60038a018054949850929650909450925060ff90911690600061089c836124af565b825460ff91821661010093840a908102908302199091161790925560038901805463ffffffff861690920264ffffffff0019831681179091556108ea93508792879291811691161784611172565b600287015560038601548a907f0692853b8d20bf806eadd662c4f5fd6f7c418db70a96783d8418d00be1ea64b7906109279060019060ff166124ce565b88600201548560405161093c939291906124e7565b60405180910390a2600082600281111561095857610958611d38565b146109e0576003860180546503000000000065ff00000000001982168117835584929166ffff0000000000191617600160301b83600281111561099d5761099d611d38565b021790555060405163ffffffff8216815233908b907ff6ae188cc6336ef5ad970d3c81cda5814b4c4902540924c6924debe94ece13eb9060200160405180910390a35b50505050505050505050565b60606109f883836116b8565b90505b92915050565b600081815260016020526040902080546001600160a01b03163314610a385760405162461bcd60e51b815260040161049290612449565b6002600382810154600160281b900460ff1690811115610a5a57610a5a611d38565b1480610a8557506001600382810154600160281b900460ff1690811115610a8357610a83611d38565b145b610aa15760405162461bcd60e51b815260040161049290612470565b600381018054660203000000000066ffff000000000019909116179081905560405161010090910463ffffffff168152339083907ff6ae188cc6336ef5ad970d3c81cda5814b4c4902540924c6924debe94ece13eb9060200160405180910390a35050565b3360009081526002602052604081205481908015610bca576000818152600160205260409020600390810154600160281b900460ff1690816003811115610b4f57610b4f611d38565b1480610b6c57506000816003811115610b6a57610b6a611d38565b145b610bc85760405162461bcd60e51b815260206004820152602760248201527f436f6d706c657465206f7220666f7266656974206578697374696e672067616d6044820152661948199a5c9cdd60ca1b6064820152608401610492565b505b600073825c0390f379c631f3cf11a82a37d20bddf93c076001600160a01b0316638204b67a6040518163ffffffff1660e01b8152600401602060405180830381865afa158015610c1e573d6000803e3d6000fd5b505050506040513d601f19601f82011682018060405250810190610c429190612505565b9050806001600160801b0316341015610c9d5760405162461bcd60e51b815260206004820152601860248201527f496e73756666696369656e742066656520666f722056524600000000000000006044820152606401610492565b600080549080610cac8361252e565b9091555050600080546040805160e08101825233815260208082018581528284018681526060840187815260808501888152600160a0870181815260c088018b9052898b529581905296909820855181546001600160a01b039091166001600160a01b0319909116178155925195830195909555516002820155925160038085018054975163ffffffff166101000264ffffffffff1990981660ff90931692909217969096178082559151949950919492939265ff00000000001990911690600160281b908490811115610d8257610d82611d38565b021790555060c082015160038201805466ff0000000000001916600160301b836002811115610db357610db3611d38565b021790555050336000908152600260209081526040918290208790558151637b43155d60e01b8152915173825c0390f379c631f3cf11a82a37d20bddf93c079350637b43155d926001600160801b038616926004808301939192829003018185885af1158015610e27573d6000803e3d6000fd5b50505050506040513d601f19601f82011682018060405250810190610e4c9190612547565b6001600160401b0381166000818152600360209081526040918290208890559051918252919450339186917fb420ce9d7328f401e14f0e6d53ac032b75a72c843dfc5b570855ca7ac838b63a910160405180910390a3806001600160801b0316341115610ef457336108fc610eca6001600160801b03841634612564565b6040518115909202916000818181858888f19350505050158015610ef2573d6000803e3d6000fd5b505b50509091565b60408051606081018252600080825260208201819052918101919091526060600080610f2a8a8a8a8a8a8a6112c9565b929d919c509a509098509650505050505050565b600073825c0390f379c631f3cf11a82a37d20bddf93c076001600160a01b0316638204b67a6040518163ffffffff1660e01b8152600401602060405180830381865afa158015610f92573d6000803e3d6000fd5b505050506040513d601f19601f82011682018060405250810190610fb69190612505565b905090565b6001600160a01b038116600090815260026020526040812054808203610fe45750600092915050565b600081815260016020526040902060030154600160281b900460ff16600281600381111561101457611014611d38565b14806110315750600181600381111561102f5761102f611d38565b145b949350505050565b6040805160038082526080820190925260609160009190816020015b61105d611cea565b8152602001906001900390816110555750506040805160c081018252600080825260146020830181905292820192909252600560608201526001608082015260a081018290528251929350918391906110b8576110b8612577565b6020908102919091018101919091526040805160c0810182526001808252600f938201849052918101929092526003606083015260808201819052600060a08301528251839190811061110d5761110d612577565b6020908102919091018101919091526040805160c0810182526002808252601e938201849052918101929092526008606083015260006080830181905260a08301528251839190811061116257611162612577565b6020908102919091010152919050565b6000606060005b85518160ff1610156112865781868260ff168151811061119b5761119b612577565b602002602001015160000151878360ff16815181106111bc576111bc612577565b602002602001015160200151888460ff16815181106111dd576111dd612577565b602002602001015160400151898560ff16815181106111fe576111fe612577565b6020026020010151606001518a8660ff168151811061121f5761121f612577565b6020026020010151608001518b8760ff168151811061124057611240612577565b602002602001015160a0015160405160200161126297969594939291906125bd565b6040516020818303038152906040529150808061127e906124af565b915050611179565b5085516020808801516040808a015190516112a8949389918991889101612626565b60405160208183030381529060405280519060200120915050949350505050565b6040805160608101825260008082526020820181905291810191909152606060008060006112f78b896116b8565b9050805187511461134a5760405162461bcd60e51b815260206004820152601860248201527f496e76616c69642061737369676e6d656e7420636f756e7400000000000000006044820152606401610492565b89945085915088516001600160401b0381111561136957611369611e83565b6040519080825280602002602001820160405280156113a257816020015b61138f611cea565b8152602001906001900390816113875790505b50935060005b89518160ff16101561140457898160ff16815181106113c9576113c9612577565b6020026020010151858260ff16815181106113e6576113e6612577565b602002602001018190525080806113fc906124af565b9150506113a8565b5060005b87518160ff16101561155e57600082898360ff168151811061142c5761142c612577565b60200260200101516000015160ff168151811061144b5761144b612577565b602002602001015190506000898360ff168151811061146c5761146c612577565b60200260200101516020015190508060ff1660000361148c57505061154c565b8060ff166001036114a8576114a188836117ed565b9750611549565b60006114b56002836124ce565b905087518160ff16106115015760405162461bcd60e51b8152602060048201526014602482015273125b9d985b1a5908195b995b5e481d185c99d95d60621b6044820152606401610492565b611527888260ff168151811061151957611519612577565b6020026020010151846118af565b888260ff168151811061153c5761153c612577565b6020026020010181905250505b50505b80611556816124af565b915050611408565b5060005b84518160ff16101561161f5760008a8260ff168151811061158557611585612577565b60200260200101516020015161ffff161180156115c65750848160ff16815181106115b2576115b2612577565b60200260200101516020015161ffff166000145b1561160d576115d6606484612682565b9250848160ff16815181106115ed576115ed612577565b602002602001015160a001511561160d5761160a6103e884612682565b92505b80611617816124af565b915050611562565b5061162a8585611973565b9250600083600281111561164057611640611d38565b0361165e5761164f85856119fe565b945061165b8585611973565b92505b600183600281111561167257611672611d38565b036116aa576116836101f483612682565b9150846020015161ffff16856000015161ffff16036116aa576116a760c883612682565b91505b509650965096509692505050565b606060006116c583611ac8565b905060006116d38585611ae0565b90508160ff166001600160401b038111156116f0576116f0611e83565b60405190808252806020026020018201604052801561173b57816020015b604080516060810182526000808252602080830182905292820152825260001990920191018161170e5790505b50925060005b8260ff168160ff1610156117e45760008261175d6020846126a6565b60ff166020811061177057611770612577565b1a9050600061177e82611b36565b905060405180606001604052808360ff1681526020018260048111156117a6576117a6611d38565b81526020016117b483611b8c565b60ff16815250868460ff16815181106117cf576117cf612577565b60209081029190910101525050600101611741565b50505092915050565b604080516060810182526000808252602080830182905292820152908201516004908181111561181f5761181f611d38565b0361186a576000826040015160ff16846000015161183d91906126d6565b9050836020015161ffff168161ffff1611611858578061185e565b83602001515b61ffff168452506118a8565b60028260200151600481111561188257611882611d38565b036118a857816040015160ff16836040018181516118a091906126d6565b61ffff169052505b5090919050565b6118b7611cea565b8260a00151156118ed576003826020015160048111156118d9576118d9611d38565b036118e657600060208401525b50816109fb565b60018260200151600481111561190557611905611d38565b1480611926575060038260200151600481111561192457611924611d38565b145b156118a857816040015160ff16836020015161ffff16111561196757816040015160ff168360200181815161195b91906126f1565b61ffff169052506118a8565b50506000602082015290565b815160009061ffff16810361198a575060026109fb565b600160005b83518160ff1610156119e3576000848260ff16815181106119b2576119b2612577565b60200260200101516020015161ffff1611156119d157600091506119e3565b806119db816124af565b91505061198f565b5080156119f45760019150506109fb565b5060009392505050565b60408051606081018252600080825260208201819052918101829052905b82518160ff161015611ac0576000838260ff1681518110611a3f57611a3f612577565b60200260200101516020015161ffff16118015611a795750828160ff1681518110611a6c57611a6c612577565b6020026020010151608001515b15611aae57611aab84848360ff1681518110611a9757611a97612577565b60200260200101516060015160ff16611c3a565b93505b80611ab8816124af565b915050611a1c565b509192915050565b6000611ad56003836126a6565b6109fb90600561270c565b60008282604051602001611b18929190918252632a3ab93760e11b602083015260f81b6001600160f81b031916602482015260250190565b60405160208183030381529060405280519060200120905092915050565b6000601360ff831611611b4b57506000919050565b609660ff831611611b5e57506001919050565b60c860ff831611611b7157506002919050565b60f060ff831611611b8457506003919050565b506004919050565b600080826004811115611ba157611ba1611d38565b03611bae57506000919050565b6001826004811115611bc257611bc2611d38565b03611bcf57506005919050565b6002826004811115611be357611be3611d38565b03611bf057506005919050565b6003826004811115611c0457611c04611d38565b03611c115750600f919050565b6004826004811115611c2557611c25611d38565b03611c325750600a919050565b506000919050565b604080516060810182526000808252602082018190528183015290830151829061ffff1615611cb2578061ffff16846040015161ffff1610611c99578084604001818151611c8891906126f1565b61ffff169052508391506109fb9050565b6040840151611ca890826126f1565b6000604086015290505b835161ffff80831691161115611ce0578084600001818151611cd491906126f1565b61ffff16905250611ac0565b5050600082525090565b6040805160c081018252600080825260208201819052918101829052606081018290526080810182905260a081019190915290565b600060208284031215611d3157600080fd5b5035919050565b634e487b7160e01b600052602160045260246000fd5b60048110611d5e57611d5e611d38565b9052565b60038110611d5e57611d5e611d38565b6001600160a01b0388168152602081018790526040810186905260ff8516606082015263ffffffff8416608082015260e08101611db260a0830185611d4e565b611dbf60c0830184611d62565b98975050505050505050565b60008060408385031215611dde57600080fd5b50508035926020909101359150565b6001600160401b0381168114611e0257600080fd5b50565b80356001600160a01b0381168114611e1c57600080fd5b919050565b600080600060608486031215611e3657600080fd5b8335611e4181611ded565b9250611e4f60208501611e05565b9150604084013590509250925092565b600060208284031215611e7157600080fd5b8135611e7c81611ded565b9392505050565b634e487b7160e01b600052604160045260246000fd5b60405160c081016001600160401b0381118282101715611ebb57611ebb611e83565b60405290565b604080519081016001600160401b0381118282101715611ebb57611ebb611e83565b604051601f8201601f191681016001600160401b0381118282101715611f0b57611f0b611e83565b604052919050565b803561ffff81168114611e1c57600080fd5b600060608284031215611f3757600080fd5b604051606081018181106001600160401b0382111715611f5957611f59611e83565b604052905080611f6883611f13565b8152611f7660208401611f13565b6020820152611f8760408401611f13565b60408201525092915050565b60006001600160401b03821115611fac57611fac611e83565b5060051b60200190565b803560ff81168114611e1c57600080fd5b80358015158114611e1c57600080fd5b600082601f830112611fe857600080fd5b81356020611ffd611ff883611f93565b611ee3565b82815260c0928302850182019282820191908785111561201c57600080fd5b8387015b858110156120ab5781818a0312156120385760008081fd5b612040611e99565b61204982611fb6565b8152612056868301611f13565b868201526040612067818401611f13565b908201526060612078838201611fb6565b908201526080612089838201611fc7565b9082015260a061209a838201611fc7565b908201528452928401928101612020565b5090979650505050505050565b600082601f8301126120c957600080fd5b813560206120d9611ff883611f93565b82815260069290921b840181019181810190868411156120f857600080fd5b8286015b8481101561214557604081890312156121155760008081fd5b61211d611ec1565b61212682611fb6565b8152612133858301611fb6565b818601528352918301916040016120fc565b509695505050505050565b60008060008060c0858703121561216657600080fd5b843593506121778660208701611f25565b925060808501356001600160401b038082111561219357600080fd5b61219f88838901611fd7565b935060a08701359150808211156121b557600080fd5b506121c2878288016120b8565b91505092959194509250565b600080604083850312156121e157600080fd5b823591506121f160208401611fb6565b90509250929050565b602080825282518282018190526000919060409081850190868401855b8281101561225c57815160ff808251168652878201516005811061223d5761223d611d38565b8689015290860151168585015260609093019290850190600101612217565b5091979650505050505050565b6001600160a01b0387168152602081018690526040810185905260ff8416606082015260c0810161229d6080830185611d4e565b6122aa60a0830184611d62565b979650505050505050565b6000602082840312156122c757600080fd5b6109f882611e05565b60008060008060008061010087890312156122ea57600080fd5b863595506122fb8860208901611f25565b945060808701356001600160401b038082111561231757600080fd5b6123238a838b01611fd7565b955061233160a08a01611fb6565b945060c089013591508082111561234757600080fd5b5061235489828a016120b8565b92505060e087013563ffffffff8116811461236e57600080fd5b809150509295509295509295565b600060c080830161ffff808951168552602081818b0151168187015260408260408c0151166040880152606060c06060890152848b5180875260e08a019150848d01965060005b8181101561241b578751805160ff9081168552878201518916888601528682015189168786015285820151168585015260808082015115159085015260a09081015115159084015296850196918801916001016123c3565b5050809750505050505050506124346080830185611d62565b63ffffffff831660a083015295945050505050565b6020808252600d908201526c4e6f7420796f75722067616d6560981b604082015260600190565b6020808252600f908201526e47616d65206e6f742061637469766560881b604082015260600190565b634e487b7160e01b600052601160045260246000fd5b600060ff821660ff81036124c5576124c5612499565b60010192915050565b60ff82811682821603908111156109fb576109fb612499565b60ff8416815260208101839052606081016110316040830184611d62565b60006020828403121561251757600080fd5b81516001600160801b0381168114611e7c57600080fd5b60006001820161254057612540612499565b5060010190565b60006020828403121561255957600080fd5b8151611e7c81611ded565b818103818111156109fb576109fb612499565b634e487b7160e01b600052603260045260246000fd5b6000815160005b818110156125ae5760208185018101518683015201612594565b50600093019283525090919050565b60006125c9828a61258d565b6001600160f81b031960f8998a1b811682526001600160f01b031960f0998a1b811660018401529790981b9096166003870152505091851b9093166005830152911515831b600682015290151590911b6007820152600801919050565b6001600160f01b031960f088811b8216835287811b8216600284015286901b1660048201526001600160f81b031960f885901b1660068201526001600160e01b031960e084901b1660078201526000611dbf600b83018461258d565b63ffffffff81811683821601908082111561269f5761269f612499565b5092915050565b600060ff8316806126c757634e487b7160e01b600052601260045260246000fd5b8060ff84160691505092915050565b61ffff81811683821601908082111561269f5761269f612499565b61ffff82811682821603908082111561269f5761269f612499565b60ff81811683821601908111156109fb576109fb61249956fea26469706673582212203633373eead700dd8ed136b8b7a4a0d3e871cfe635b565d9c15bfb520eaa7fc164736f6c63430008180033",
  "linkReferences": {},
  "deployedLinkReferences": {}
}